:020000040800F2
:10000000E04C0020010100089D100008550F000879
:10001000011000080D0400085F390008000000000E
:100020000000000000000000000000008937000808
:100030008905000800000000E7010008451C0008D1
:100040001B0100081B0100081B0100081B01000820
:100050001B0100081B0100081B0100081B01000810
:100060001B0100081B0100081B0100081B01000800
:100070001B0100081B0100081B0100081B010008F0
:100080001B0100081B0100081B0100081B010008E0
:100090001B0100081B0100081B0100081B010008D0
:1000A0001B0100081B0100081B0100081B010008C0
:1000B0001B0100081B0100081B0100081B010008B0
:1000C0001B0100081B0100081B0100081B010008A0
:1000D0001B0100081B0100081B0100081B01000890
:1000E0001B0100081B0100081B010008DFF80CD0F1
:1000F00000F056F800480047A1390008E04C002005
:100100000648804706480047FEE7FEE7FEE7FEE7B1
:10011000FEE7FEE7FEE7FEE7FEE7FEE7E33700085F
:10012000ED00000872B6704762B67047EFF31080BA
:1001300072B6704780F31088704730BF704720BF99
:100140007047B0FA80F0704790FAA0F0B0FA80F0F3
:10015000704790FAA0F0704740EA01039B0703D074
:1001600009E008C9121F08C0042AFAD203E011F8F6
:10017000013B00F8013B521EF9D27047D2B201E0B8
:1001800000F8012B491EFBD270470022F6E710B59C
:1001900013460A4604461946FFF7F0FF204610BDF5
:1001A000064C074D06E0E06840F0010394E80700C4
:1001B00098471034AC42F6D3FFF79CFF903A000802
:1001C000B03A000818484FF0FF010170002080F39A
:1001D00009881648016881F3088815484FF0805156
:1001E000016062B6FEE772B6EFF3098028B12038ED
:1001F00080E8F00F0F490968086000B50E48804795
:100200005DF804EB0D480E490A78027009480D4963
:100210000A680260106890E8F00F203080F30988C7
:100220004EF0040E62B6704722ED00E03000002070
:1002300004ED00E0DC000020051A00088600002024
:1002400087000020E00000200EB5094E002402AD1A
:100250004FF4FA770121304600F0A6FA00223B461F
:1002600011461046CDE9004501F000FCF2E7000020
:10027000000C01400EB5094E002402AD4FF4FA7790
:100280000221304600F090FA00213B460122084648
:10029000CDE9004501F0EAFBF2E70000000C014067
:1002A0008AB000F09DF800F0B3F800F0AFFE002433
:1002B0000327CDE9064709AD4FF0400806261D4942
:1002C00008950594042004948DE8430123461A4AB6
:1002D0001AA11D4801F0DCF8CDE906471B49089535
:1002E0000594052004948DE8430117480023184A1B
:1002F00018A1C83001F0CCF8CDE90647184901A88B
:1003000008950594049480E842010023154A16A13B
:100310001848009601F0BCF809A9002001F0BCF9CA
:100320000023012219461846CDE9004501F09EFB45
:10033000F6E7000004060020490200084C4544305E
:10034000205461736B000000AC0100200407002002
:10035000750200084C454431205461736B00000065
:100360000408002079030008554152542054617359
:100370006B0000003C03002090B034220AA102A8C8
:10038000FFF7EAFE00240FAD6423312202A91348CF
:1003900000F090FD0023022219461846CDE90045E1
:1003A00001F064FBF0E7000068656C6C6F2075631A
:1003B0002F4F532120E6ACA2E8BF8EE69DA5E5882D
:1003C000B052544F53E5A49AE4BBBBE58AA1E78E33
:1003D000AFE5A283EFBC810D0A00000004090020F4
:1003E00010B500F005F8BDE8104000F0B5BD000004
:1003F00010B500F005FB04490968BDE81040B0FBEA
:10040000F1F001F037BC0000643A0008FEE700009C
:10041000054910B50020486000F098F800F006F893
:10042000BDE8104000F078B8100000202DE9F04140
:10043000104D002427462C806C80AC60EC606C6111
:10044000AC612C61FFF772FE804600266C6100F003
:100450003BF800F049F86869761C36040744360C0E
:10046000F4D0C5E904744046AC61BDE8F041FFF743
:1004700061BE00001000002003490969884201D9CB
:10048000401A7047002070471000002010B5FFF799
:100490004DFE04494C69FFF74DFE2046BDE8104073
:1004A000FFF7EABF1000002010B5FFF7EFFF04468A
:1004B000FFF73CFE034A00215161FFF73BFE204657
:1004C00010BD00001000002010B5064C2088401C14
:1004D0002080608810B900F051F8A0606088401C4E
:1004E000608010BD1000002010B50A4C6088401ECE
:1004F0000004000C60800CD100F040F8E060A168BE
:10050000401A6169814200D26061A169814200D2D2
:10051000A06110BD1000002010B5FFF707FE0446D3
:10052000FFF7D2FF1021054800F06BFDFFF7DCFF5D
:100530002046BDE81040FFF7FDBD00004C0900203B
:10054000014948607047000010000020094810B5BC
:10055000016841F080710160074800214160016835
:1005600041F00101016000F04BFABDE81040FFF7D7
:10057000E7BF0000FCED00E0001000E0014840682B
:1005800070470000001000E070470000044C01219B
:10059000204600F009F9C82000F004F8F7E7000051
:1005A000000C014070B5044600F00CF90546601CD3
:1005B00002D004480078044400F004F9401BA04233
:1005C000FAD370BD000000202DE9F84FDFF8B89194
:1005D0000024A9F1040B23460F2709F1040AABF10B
:1005E000040EC9E00125A5402A40AA427DD1674EEC
:1005F000D1F804C0ACEB0608B44532D014DCBCF131
:10060000030F3AD009DCBCF1000F2AD0BCF1010F76
:100610001CD0BCF1020F31D11DE0BCF1110F17D07D
:10062000BCF1120F2AD119E0B8F5881F19D006DCE9
:10063000B8F5803F15D0B8F5801F1FD111E0B8F58F
:10064000001F0ED0B8F5041F18D10AE0CB6815E0E2
:10065000CB681B1D12E0CB6808330FE0CB680C336E
:100660000CE08B682BB1012B4FF0080303D04561E0
:1006700004E0042302E0056100E00023FF2A01D822
:10068000064601E000F104064FEA840501D9A5F110
:100690002005D6F8008007FA05FC28EA0C0803FAC2
:1006A00005F548EA0508C6F800804D68ED0062D5FA
:1006B000374DAE6946F00106AE61AD6924F0030620
:1006C00005F001050095334D06EB050CDCF80850EC
:1006D000A607360F07FA06F825EA0805DFF8B880FE
:1006E000404503D14FF0000817E044E0DFF8AC804C
:1006F000404502D14FF001080FE0DFF8A4804045EB
:1007000002D14FF0020808E0DFF89880404502D19E
:100710004FF0030801E04FF0040808FA06F848EA31
:100720000508CCF808804D68D9F80060ED024D4608
:1007300001D5164300E096432E604D68DAF800605C
:10074000AD02554601D5164300E096432E604D6834
:10075000DBF80060AD035D4601D5164300E096432B
:100760002E604D68DEF80060ED03754601D5164336
:1007700000E096432E60641C0D682A46E5407FF435
:1007800031AFBDE8F88F00000804014000001110EF
:10079000001002400000014000080140000C014030
:1007A0000010014000140140C26821EA02030A401F
:1007B00043EA0241016170470AB1016170470904CF
:1007C000FBE700000148806870470000000000203F
:1007D000074810B5016841F010010160032000F0E6
:1007E00067F80F2000F006F800F024F8002010BD94
:1007F0000020024070B50D4D04464FF47A71287800
:10080000B1FBF0F00A490968B1FBF0F000F0D4FA4E
:1008100048B9102C07D200222146501E00F028F8BB
:1008200000206C6070BD012070BD00000000002041
:100830000C0000200C4808B5816941F0010181617C
:10084000816901F001010091C16941F08051C161EC
:10085000C06900F0805000900448416821F0E061D8
:1008600041F00071416008BD0010024000000140ED
:10087000F0B40E4B1B680C46C3F30223C3F107050B
:10088000042D00D90425191D072901D2002300E0F9
:10089000DB1E012606FA05F1491E214099409E40C3
:1008A000761E16403143F0BC03F05AB80CED00E060
:1008B000064900F0070208684FF6FF03184040EAB7
:1008C0000220034A10430860704700000CED00E06E
:1008D0000000FA052DE9F0470F46050061D0434EB0
:1008E000306800F00700B84209D2306820F00700F5
:1008F00038433060306800F00700B84251D12868B2
:100900003B4C810712D5400703D5606840F4E06096
:1009100060602878000703D5606840F4605060602C
:100920006068A96820F0F000084360602878C0077C
:1009300028D06868012810D02168022810D08907C3
:1009400000292EDA616821F0030101436160FFF79D
:1009500039FF804641F288390DE021688903EFE7CD
:100960008901EDE7FFF72EFFA0EB0801494502D909
:100970000320BDE8F0876068696800F00C00B0EB08
:10098000810FEFD1306800F00700B8420BD9306812
:1009900020F0070038433060306800F00700B842AC
:1009A00001D00120E5E72878400705D56068E968AF
:1009B00020F4E060084360602878000706D560688E
:1009C000296920F4605040EAC100606000F03EF800
:1009D0006168084AC1F30311515CC84006490860C8
:1009E00006480068FFF706FF0020C2E7002002402B
:1009F00000100240163A00080C00002004000020FD
:100A000001480068704700000C00002004480549B8
:100A100000684968044AC1F30221515CC84070472C
:100A20000C00002000100240263A00080448054946
:100A300000684968044AC1F3C221515CC84070474C
:100A40000C00002000100240263A00080E4A5168AF
:100A50000E4801F00C03042B11D0082B0FD10C48C9
:100A6000C1F38343C903C05C0AD55168084AC1F386
:100A70004041921E515C054A5043B0FBF1F0704773
:100A800004494843704700000010024000127A00F9
:100A9000063A000800093D002DE9F84F040070D027
:100AA0002078C04DC00749D06868C0F38100012894
:100AB00007D06868C0F38100022809D16868C003C4
:100AC00006D52868800339D560680028E7D035E06E
:100AD0006068B0F5803F0BD010B1B0F5A02F11D0F9
:100AE000286820F480302860286820F4802002E004
:100AF000286840F480302860606890B1FFF762FE9B
:100B000006460AE0286840F480202860F0E700BF2D
:100B1000FFF758FE801B642873D828688003F7D538
:100B20000CE0FFF74FFE064605E000BFFFF74AFE68
:100B3000801B6428F0D828688003F7D420789A4E68
:100B400080074FF001094FF0000839D5686810F0B0
:100B50000C0F07D06868C0F38100022809D16868CB
:100B6000C00306D42868800714D52069012808D15D
:100B700010E02069B0B1C6F80090FFF723FE0746E9
:100B800005E00AE1FFF71EFEC01B0228C4D8286852
:100B90008007F7D52868616920F0F80040EAC100B5
:100BA00028600DE0C6F80080FFF70CFE074604E061
:100BB000FFF708FEC01B022823D828688007F7D457
:100BC000207800072CD57948A169D9B1C0F80090E8
:100BD000FFF7F8FD074604E0FFF7F4FDC01B02280D
:100BE0000FD8686A8007F7D571484FF4FA5100684A
:100BF000B0FBF1F0009000BF0098411E0091FAD2C6
:100C00000EE080E0C0F80080FFF7DCFD074604E05E
:100C1000FFF7D8FDC01B022875D8686A8007F7D493
:100C20002078400760D5E8690027C00008D4E8694B
:100C300040F08050E861E869012700F080500090A2
:100C40005C480168C90513D40168834641F480718A
:100C50000160FFF7B7FD824606E000BFFFF7B2FD77
:100C6000A0EB0A0064284ED8DBF80000C005F5D5DB
:100C7000E06801280AD008B1052813D0286A20F0BE
:100C800001002862286A20F0040002E0286A40F08F
:100C900001002862E06841F2883B98B1FFF792FDBD
:100CA00082460BE0286A40F004002862EEE700BFAD
:100CB000FFF788FDA0EB0A0159455AD8286A80073A
:100CC000F6D50CE0FFF77EFD824605E0FFF77AFDE2
:100CD000A0EB0A0159454CD8286A8007F6D41FB109
:100CE000E86920F08050E861E06988B36968C1F381
:100CF0008101022944D00228C6F8608004D0FFF7A1
:100D000061FD044638E034E0FFF75CFD074604E08F
:100D1000FFF758FDC01B02282BD828688001F7D4A4
:100D2000206AB0F5803F05D16868A16820F40030E2
:100D300008436860D4E908010843696821F4741124
:100D400008436860C6F86090FFF73CFD044606E083
:100D500025E000BFFFF736FD001B022809D82868F0
:100D60008001F7D51BE000BFFFF72CFD001B022818
:100D700002D90320BDE8F88F28688001F4D40EE082
:100D80000128F7D06868226A00F48031914204D1CA
:100D9000616A00F47010884201D00120EAE7002067
:100DA000E8E7000000100240000042428004424296
:100DB0000C0000200070004010B5401EB0F1807F94
:100DC00001D3012010BD4FF0E02460610F216017B6
:100DD00002F0C6FD0020A06107202061002010BDA8
:100DE00070B5040004D094F84100002510B106E06D
:100DF000012070BD84F84050204600F023F82420E4
:100E000084F841002068C16821F40051C160204687
:100E100002F010FD2068016921F490410161206811
:100E2000416921F02A0141612068C16841F4005103
:100E3000C1606564202084F8410084F84200656345
:100E4000002070BD30B585B0002400940194029458
:100E5000039400681449884224D11448816941F4FC
:100E600080418161816901F480410491816941F08F
:100E70000401816180690E4D00F0040004904FF47C
:100E800000700090022001900320039069462846DC
:100E9000FFF79AFB2815CDE900046946284602941D
:100EA000FFF792FB05B030BD003801400010024052
:100EB000000801402DE9F843044690F841009846A7
:100EC00016460D46202802D00220BDE8F88385B1E1
:100ED0007EB100206064212084F84100FFF772FC9D
:100EE000A6848146E684A0682027B0F5805F02D002
:100EF00003E00120E9E7206910B12E4600250EE04D
:100F000000260CE08021204602F0F0FCA8B9C6B112
:100F100016F8010B21684860E08C401EE084E08CEC
:100F20004B464FF00002CDF800800028EAD14FF088
:100F30004001204602F0DAFC40B184F84170032001
:100F4000C3E735F8020BC0F30800E3E784F841700B
:100F50000020BAE7FEE7000030B585B0002418484D
:100F60000094019402940394816941F0200181610D
:100F7000816901F020010491816941F008018161DA
:100F8000816901F008010491816941F004018161E6
:100F900080690C4D00F004000490002203212846D3
:100FA000FFF70AFC032000900120CDE90104022094
:100FB000039069462846FFF707FB05B030BD0000E7
:100FC00000100240000C01400C4810B50A490160B5
:100FD0004FF4E1314160002181600C22C160C0E921
:100FE00004128161C161FFF7FBFE002803D0BDE858
:100FF0001040FFF7CBBA10BD0038014004090020B3
:10100000FEE70A46002100F023B800000D480E4913
:101010000246C0E9001200218160C16001614161A6
:101020008161C16101620163C162416200F14801F5
:101030008163C1634FF4205101644164034802603D
:10104000704700005C090020484541502C000020FA
:1010500010B5002A21D000281FD000244FEA040335
:101060005B1C41EA0424042BFAD310F0030305D1DE
:101070000BE000BF521E00F8011B5B1C002A0CD0C5
:10108000042BF7D301E010C0121F042AFBD202E0A8
:1010900000F8011B521E002AFAD110BDFEE770476E
:1010A00002480068002800D0004770474400002034
:1010B00010B5044600F0B8F8434800210A22017038
:1010C0004248017042480170424801604248016054
:1010D0004248017042480170424801704248016034
:1010E000424801604248016042480170424800683D
:1010F000B0FBF2F0414A1060414A106830B14148FB
:10110000006818B1126802C0521EFCD13E4801604E
:101110003E4801603E4801603E4801603E48016033
:101120003E4801603E4801603E48017001F09CFA73
:1011300001F04EFB204600F0B3FD2088002841D18D
:10114000204601F0A1F8208800283BD1204601F07C
:10115000A7F82088002835D1204601F03BF92088E7
:1011600000282FD1204601F0A5FA2088002829D197
:10117000204601F055FC2088002823D1204601F0AC
:1011800011FD208800281DD1204600F0F1FF2088A5
:10119000002817D1204600F089FE2088002811D1B0
:1011A000204602F057F9208800280BD1204602F093
:1011B000A5F92088002805D100F070FDBDE8104099
:1011C000FFF76DBF10BD000058000020590000203F
:1011D000A0000020DC000020E000002086000020AD
:1011E0008700002088000020940000209800002044
:1011F0009C000020A8000020643A0008A400002001
:10120000543A0008503A0008380000203C00002002
:101210004000002044000020480000204C00002036
:1012200050000020BE00002030B5094B0020094AC4
:101230000446196801E010C1401C1568A842FAD3A1
:101240001868054900EB8500001F086030BD0000EC
:10125000503A0008543A0008300000201A4810B5EF
:10126000007801282FD1FEF761FF184A0446117853
:1012700029B1491E11F0FF00107022D103E0BDE832
:101280001040FEF757BF12480078D0B901F0DAF9E4
:1012900010490870104900EB400051F820100F4829
:1012A00001600F48006881420BD051F8900F401C3C
:1012B00008600C480168491C01600B494FF08050E0
:1012C00008602046DBE710BD5900002058000020D0
:1012D000A000002087000020D0450020E000002072
:1012E000DC000020B400002004ED00E0164810B53A
:1012F0000078002826D115480078002822D1FEF772
:1013000015FF044601F09EF911490870114900EBE0
:10131000400051F8200010490860104909688842CF
:101320000BD050F8901F491C01600D480168491C02
:1013300001600C494FF0805008602046BDE8104025
:10134000FEF7F8BE10BD000058000020A0000020ED
:1013500087000020D0450020E0000020DC000020B5
:10136000B400002004ED00E070B504461248007897
:1013700010B146F662501DE010480078012802D0F6
:1013800045F6896016E00E4D2878FA2802D345F21A
:1013900009200FE0FEF7CAFE0646FFF795F8287809
:1013A000401C287001F0DCFAFFF79EF83046FEF78B
:1013B000C1FE0020208070BD580000205900002090
:1013C000A000002070B504461848007810B146F619
:1013D000655029E016480078012802D045F689605A
:1013E00022E0144D287890B1FEF7A0FE0646FFF7E4
:1013F0006BF82878401E10F0FF0028700AD0FFF725
:1014000073F83046FEF796FE46F663500CE046F65B
:10141000645009E001F0B2FAFFF766F83046FEF7D3
:1014200089FEFFF763FF0020208070BD5800002078
:1014300059000020A000002070B50F4D0446287808
:1014400018B145F68A60208070BD01F0FBF80B49A9
:1014500008700B4908700B4900EB400051F8200060
:10146000094908600949086001202870FEF7AAFEB2
:1014700043F69920E7E7000059000020870000208C
:1014800086000020D0450020E0000020DC00002085
:101490002DE9FF4F83B004467248DDE91785DDE989
:1014A00010960078DDF854A0139F10B147F24A104F
:1014B0002AE04CB1059850B166B16B48006887428C
:1014C0000BD246F630601FE047F2AD101CE047F249
:1014D0004F1019E046F62F6016E01298B84202D37A
:1014E00046F6316010E046F27320B9F1200F0BD2BE
:1014F0005FEA090103D0B9F11F0F02D008E05B4990
:1015000000E05B498C4203D0288007B0BDE8F08F33
:10151000204601F057FB4FF0000BA5F800B05FEA42
:10152000C8700AD05FEA887007D5304600215A4655
:1015300001E004C0491CB942FBD31298CDE9007800
:1015400006EB8005DDE905012B46324600F022FA64
:101550000599A1620699E1620499216284F83790A5
:10156000C4F854A0A56020605FEA0A0024D0A065FA
:101570001698A76366626060A4F83C800020594614
:1015800004EB8002401CD16710F0FF00F8D004F19A
:101590006400149900F0D2FE204600F075F8FEF7C2
:1015A000C5FD0646FEF790FF324D2878401CC0B2BC
:1015B0002870012803D004E02F480068D7E701F025
:1015C000CFF9FEF791FF3046FEF7B4FD94F83700EF
:1015D00001F050F8204601F041F9204601F0B4FA3C
:1015E00026490888401C088025480078012821D019
:1015F000FEF79CFD0446FEF767FF2878401E10F0BA
:10160000FF0129700ED101F0B9F91E48008848B1D8
:10161000FEF76AFF2046FEF78DFD07B0BDE8F04FEC
:1016200001F07AB9FEF760FF07B02046BDE8F04F41
:10163000FEF780BDFEF77AFD0446FEF745FF2878E9
:10164000401E10F0FF01297001D101F097F9FEF75B
:101650004BFF2046FEF76EFD07B0BDE8F04FFFF7E9
:1016600045BE000058000020603A0008FC440020FD
:1016700034440020A0000020A4000020BC00002072
:10168000590000206400002002490968002900D0A8
:1016900008477047380000202DE9F04104465248C1
:1016A0000E46007810B147F24E100AE04F488442CF
:1016B00002D147F24C1004E04D48844204D147F275
:1016C0004D100880BDE8F0815CB9FEF72FFD05469E
:1016D000FEF7FAFE47480468FEF706FF2846FEF7C5
:1016E00029FDFEF723FD0746FEF7EEFE424D287862
:1016F000401CC0B22870012801D101F031F9FEF779
:10170000F3FE3846FEF716FD94F8360008283DD261
:10171000DFE800F004080C0C1C080C0C204601F05B
:10172000D1F813E0204601F0A7FD0FE0204601F0BC
:10173000A3FD94F83400072808D2DFE800F007047E
:10174000070404040400204600F0EFFE04F16400E6
:1017500000F0DAFD204600F055F8204601F006FAC8
:1017600026490888401E0880204601F02BFAFF20F9
:1017700084F83600FEF7DAFC0446FEF7A5FE28786A
:10178000401E10F0FF00287021D022E0FEF7CEFCB2
:101790000446FEF799FE2878401E10F0FF002870DE
:1017A0000CD101F0EBF81648008838B1FEF79CFE2A
:1017B0002046FEF7BFFC01F0AFF804E0FEF794FE10
:1017C0002046FEF7B7FC46F62D6030807AE701F040
:1017D000D5F8FEF789FE2046FEF7ACFC00203080ED
:1017E000BDE8F041FFF782BD5800002034440020DE
:1017F000FC440020DC000020A0000020BC000020F1
:101800006400002002490968002900D00847704799
:101810003C00002002490968002900D008477047B1
:10182000400000202DE9F0478146574814461E46E7
:101830000078884610B146F2AE1006E0080006D0E7
:10184000B1F5004F03D045F6256018803DE0002734
:1018500004B12760FEF76AFC8246FEF735FE4B4D69
:101860002968486CD8B1401E804648640CB1086CA9
:101870002060FEF783FE29680A6C801AC1F8A40074
:10188000D1F8A820824201D2C1F8A800FEF72CFEB0
:101890005046FEF74FFC37804046BDE8F0875FEAD0
:1018A000084007D5FEF720FE5046FEF743FC46F2FF
:1018B000B01009E03648017849B1FEF715FE5046F0
:1018C000FEF738FC46F6635030800020E5E7012142
:1018D0008046017001F044F8FEF706FE5046FEF720
:1018E00029FC00214B460722084600F07FFDFEF749
:1018F0001DFC8146FEF7E8FD98F80010491E11F026
:10190000FF0188F8001001D101F038F8FEF7ECFD76
:101910004846FEF70FFCFFF7E9FCFEF707FC8046A0
:10192000FEF7D2FD286890F8351031B1012916D0A4
:1019300003291AD046F62E601BE074B1006C2060BB
:10194000FEF71CFE29680A6C801AC1F8A400D1F8C1
:10195000A820824201D2C1F8A80037800AE00CB169
:10196000006C206046F2A91003E004B1276047F242
:10197000D92030802868446CFEF7B6FD4046FEF75B
:10198000D9FB204689E7000058000020DC00002039
:10199000A000002010B5029C02EB84024FF080747E
:1019A00042E90204164842F80C0C4FF0123042F89B
:1019B000100CA2F114004FF0023240E903134FF073
:1019C000113140F8101CD10040F8141C4FF00931BF
:1019D00040F8181C910040F81C1C4FF007314FF0E4
:1019E000033440F8201C610040F8241C4FF00531FE
:1019F00040F8281D5100C0E9092440F8041D10BD1D
:101A0000ED2E000870B51548006800B18047FEF75C
:101A1000B5FD134C134A21681268914207D0D1F8E2
:101A20009830C31A41F8943F8D682B448B60C2F8FC
:101A30009800FEF739FD2168D1F8B420824201D226
:101A4000C1F8B400084AD1F8B8301068834201D216
:101A5000C1F8B8000020106070BD00004C000020EC
:101A6000DC000020E00000209C0000202DE9F04771
:101A70005C4EDDE90854367816B147F27520ABE0CC
:101A8000DFF864A19AF8006016B146F66350A3E04F
:101A900015F00E0647F27E2945F6256705D0022E81
:101AA00003D0042E06D0082E07D11BB912B909B9EC
:101AB00000287DD035F01E0C02D02780BDE8F087CD
:101AC000C5F3001547F2792C47F278284FF47A775E
:101AD0003DB142F20F75A94212D900BFA4F800C06F
:101AE000ECE7BB4202D347F27B2075E03B2A02D9E8
:101AF00047F27A2070E03B29F0D8632802D804E04E
:101B0000B84202D3A4F80080D8E7384D4FF4FA7CED
:101B1000C1EB01112D68BCFBF5FC63446B43B3FBC7
:101B2000F7F34FF46167784300EB8100104400FB4A
:101B30000537EFB3FEF7FAFA8046FEF7C5FC9AF8D0
:101B400000005546401CC0B28AF80000012801D1AF
:101B500000F006FFFEF7C8FC4046FEF7EBFADFF8A0
:101B6000908001212346D8F80000324680F83610D4
:101B7000394601F015FB208898B1FEF7D7FA0446E4
:101B8000FEF7A2FC2878401E10F0FF01297001D159
:101B900000F0F4FEFEF7A8FC2046BDE8F047FEF793
:101BA000C9BAD8F8000000F08DFEFEF7BFFA00E0D9
:101BB00014E00646FEF788FC2878401E10F0FF006F
:101BC000287001D100F0DAFEFEF78EFC3046FEF7F9
:101BD000B1FAFFF78BFB002020806FE7A4F800909C
:101BE0006CE7000058000020A0000020643A0008C4
:101BF000DC00002000B585B000F01CF8FEF7BEFC4C
:101C000004AA002103920091CDE90110064807497A
:101C1000002300781A4600EB400001EB80010448E5
:101C200000F078F905B000BD86000020D045002006
:101C30005449434B02480068002800D000477047D1
:101C40005000002010B5FEF771FA0446FEF73CFC88
:101C500007490878401C0870FEF746FC2046FEF74E
:101C600069FAFFF7C7FFBDE81040FFF7F7BA0000B9
:101C7000580000204FF0E021401E486106480268ED
:101C800022F07F420260086940F00500086108699F
:101C900040F002000861704720ED00E0704700004E
:101CA000034A00211160034A11800180704700003F
:101CB00070000020740000202DE9F05F9A469046E5
:101CC0000D4604460A9FFEF731FA8346FEF7FCFBF9
:101CD0005FEA080024D0012807D0B0F5004F1FD0DC
:101CE0006FF4004118EB010F12D1206A30EA0500B1
:101CF000C4E9080A208A04F108064FF0000990B1EF
:101D00004D4D2878401CC0B22870012815D016E02F
:101D1000FEF7EAFB5846FEF70DFA45F625606CE043
:101D2000206A2843E4E7FEF7DFFB5846FEF702FA95
:101D3000A7F80090206ABDE8F09F00F011FEFEF7C2
:101D4000D3FB5846FEF7F6F9366833E090F8881072
:101D5000766801F00F0101291BD0022921D0042946
:101D60000DD0082910D0FEF7E1F90446FEF7ACFBD0
:101D70002878401E10F0FF0028702AD036E0216A33
:101D8000D0F88020114009E0216AD0F8802011406D
:101D90000BE0D0F88010236A0A4699438A4205D0A6
:101DA00007E0D0F88010226A914311B1524600F04A
:101DB00047F816B1B0680028C8D1FEF7B7F9064653
:101DC000FEF782FB2878401E10F0FF00287017D025
:101DD00018E000F0D3FD1948008838B1FEF784FB05
:101DE0002046FEF7A7F900F097FD04E0FEF77CFB24
:101DF0002046FEF79FF943F6FF20388000209AE73F
:101E000000F0BCFDFEF770FB3046FEF793F95FEA89
:101E1000084001D4FFF76AFAFEF788F90546FEF795
:101E200053FB246AFEF760FB2846FEF783F9A7F808
:101E3000009020467FE70000A00000206400002002
:101E400070B50025C0F8841080F8355080F8345003
:101E50000446026490F8360008280ED2DFE800F04D
:101E60000D0D04040D0D0A0A204600F0B1FF84F8A0
:101E7000365002E0042084F836002046BDE8704069
:101E800000F053BB084C00BFFEF750F90546FEF7C3
:101E90001BFB2068401C2060FEF726FB2846FEF74F
:101EA00049F9FFF7FDF8EFE75400002000B50E4AAE
:101EB00089B0002111600B2205910691CDE9072020
:101EC0000A480B4A0B4B006812681B680292CDE966
:101ED00003011F20CDE900030023074A07A10C4896
:101EE000FFF7D6FA09B000BD54000020383A0008C8
:101EF000343A0008303A0008851E000875432F4F19
:101F0000532D4949492049646C65205461736B0025
:101F1000344400202DE9F84F1D46DDE90CB4DDE91D
:101F20000AA916460F468046FEF700F90090FEF714
:101F3000CBFA1D481D4A0188128891422DD2491CB6
:101F400089B201801A4802888A4200D20180194968
:101F50000868C0F80080C0E902760582C0F814A0C5
:101F6000A0F81890C0F81CB0406808601248012121
:101F70000181124901604160002000F07BFB1048A4
:101F8000007808B10F49087000202080FEF7ACFAF5
:101F90000098BDE8F84FFEF7CDB80B490888401C03
:101FA000088044F25360F0E764000020403A0008E3
:101FB000660000205C000020D0450020FC4400208A
:101FC0008600002088000020680000203EB5374CC5
:101FD000374B02A920680268D51A9A4245D015DC11
:101FE000344BD2182DD0344BD21822D0334BD218C8
:101FF00032D0334BDA4208D1C269CDE90021038BDC
:10200000028AC168806800F041FE3EBD2D4AAA18D0
:102010001ED02D4BD21824D02C4BDA42F5D1C269F8
:10202000CDE90021038B028AC168806800F04EFB75
:102030003EBD0091028BC36941698068FFF73CFE99
:102040003EBD018BC269806802AB00F0F5FC3EBD6D
:10205000806800F0CBFE3EBD018BC269806802AB98
:1020600021E0806801F012F83EBD19481949007856
:1020700000EB400001EB800000F09EFC206802AB0A
:102080000021C269144800F03DFF14480168491E50
:102090000160E9D1124909680160FEF76FFA024652
:1020A00002AB00210F4800F02DFF3EBD6000002074
:1020B0005449434BADBAB2BE0DF90BFAF2F8F7FF33
:1020C0000006F6FF00F7FDF700FFEFFF03FE0FFE2F
:1020D00088000020D045002050470020D800002074
:1020E000D4000020184800201D4D1E4C1E4E00BF7D
:1020F000FEF71CF80746FEF7E7F9208808B3FEF75D
:10210000F3F93846FEF716F8FEF738FA0746FFF7F8
:102110005DFFFEF733FA2968C01B814200D22860B8
:10212000FEF704F80746FEF7CFF9306840683060E4
:102130002088401E2080FEF7D7F93846FDF7FAFFC9
:10214000D6E70A49002008810860486000F0A2FA3A
:10215000FEF7CAF93846FDF7EDFFFFF7C7F8C5E708
:102160006C0000206400002060000020D0450020AA
:10217000F0B52F492F4D89B000220A80296831B16E
:102180002D4E3188022905D244F2546135E044F2E3
:10219000526132E029490023294F0A60296801F180
:1021A000200410E041F8087B5B1C41F8082B9BB22F
:1021B00041F8042C21F8102B41F80C2C21F8082CA4
:1021C00041F81C4C2034B6F800C06345EAD32B68B4
:1021D00041F81C3C1B490B601B490B601B490A80E2
:1021E0001B490A801B490B6853B11B4B1B4D1C68D4
:1021F0002D68AC4207D244F25661018009B0F0BDAF
:1022000044F25561F9E7032405920692CDE90740AF
:102210001868134B09681B68CDE903020092CDE9E9
:10222000011300230F4A10A11648FFF731F9E5E723
:10223000680000203C3A0008403A00086C0000208A
:102240004E4F4E455C0000206000002064000020DE
:1022500066000020443A00084C3A0008603A000842
:10226000483A0008E920000875432F4F532D49498B
:102270004920495352205175657565205461736B2F
:1022800000000000FC440020034A00211160034AC2
:102290001180018070470000780000207C00002041
:1022A000F0B5164C216859B1154E318859B189B233
:1022B000491E22688FB2002502F1100329460EE064
:1022C00045F21E7118E045F21D7115E0E2E8023199
:1022D0006D1C22F8081BADB242F8041C1033BD423D
:1022E000F4D3116051601181D160064A23681360F4
:1022F00033889380D18011810180F0BD5C3A000861
:10230000583A0008C445002010B5428992B10A49E4
:1023100003680C681C6043680B60CB8844891B1BF6
:10232000CB808B88448923448B800021418181812B
:1023300001604160104610BDC445002001810021AC
:10234000418181810160416070470000F0B544899E
:10235000DDE905E70589AC4202D346F293501EE061
:102360001B4DAE88CEB12C68761ED4F800C0C5F8DF
:1023700000C0AE80EE88761CB6B2EE80B5F808C01C
:10238000B44500D22E814689002556B1DB060ED415
:1023900003681C60046025600CE045F21D70388005
:1023A000F0BD0460012344604381256005E043687B
:1023B0002360446043895B1C4381868943899E4234
:1023C00000D2838161602281C4F80CE03D80F0BDC1
:1023D000C4450020034A00211160034A1180018096
:1023E0007047000080000020840000202DE9F041AB
:1023F000114D07460C4628680026194680F83420FF
:1024000080F8356000F08AFB64B1FC6004F10806D6
:1024100001223946286800F011F83946304600F0AC
:1024200057F802E02868C687066320462968BDE899
:10243000F04100F01BB80000DC00002010B5C2879E
:102440000024234601630EE04B6041F8103B641CFE
:1024500041F8103BA4B241F80C3C21F8083C41F88B
:10246000043C41F8180C9442EED310BD38B14268D8
:10247000C1F8C42081688968096AC161704791F810
:102480003400022803D0072803D004A002E004A0EF
:1024900000E005A0C1F8C400704700002000000063
:1024A0005461736B205100005461736B2053656D50
:1024B0000000000005A2C1F8C420816811B189683C
:1024C000096A00E001A1C16170470000200000001E
:1024D00030B58A68002392F8374002891AB1521C3D
:1024E000028102680BE0012202814B600B600160F7
:1024F00014E0956895F83750A54203D85268002A31
:10250000F7D107E032B1146854B1C1E9004261600B
:10251000116030BD4B6042680A605160416030BD5F
:102520001160C1E90032016030BD70B50646C48F4C
:10253000056B07E0E8682946083000F009F8641EDA
:10254000A4B22035002CF5D10020F087306370BD97
:1025500010B502890023012A0BD00A6862B14C68C9
:1025600074B1546022600289521E02814B600B607C
:1025700010BD03604360F6E74A6813600260F2E74B
:1025800053604260EFE7F8B50C46064691F8361006
:102590000025069808293BD2DFE801F03A3A040406
:1025A0003A3A202094F83410032911D0E265A4F8B7
:1025B0006030206436B12046FFF7B7FF2146304631
:1025C000FFF778FF204600F003FC84F836501BE04C
:1025D00000902146304600F022F8EBE794F83410E2
:1025E000032916D0E265A4F860302064204600F08C
:1025F00043FE36B12046FFF798FF21463046FFF7ED
:1026000059FF042084F8360084F8355084F834509B
:10261000F8BD00902146304600F001F8E6E770B5BD
:102620000C6B049DC98F0AE0E668864204D1C4E9B8
:1026300004022383E56170BD491E89B2203400295C
:10264000F2D170BD10B50024064802E02034E4B297
:10265000001D01680029F9D00846FDF772FD2044ED
:10266000C0B210BD3400002001490020086070474E
:102670003400002000F01F0241090120C2F11F02B6
:102680009040034A52F82130034342F8213070470A
:102690003400002000F01F0241090120C2F11F0296
:1026A0009040034A52F82130834342F8213070476A
:1026B00034000020034A00211160034A1180018088
:1026C000704700008C000020900000202DE9FF4F93
:1026D00083B01F46DDE9109A93460646FDF726FDB6
:1026E0000546FDF7F1FE384C2078401CC0B2207042
:1026F000012801D100F034F9FDF7F6FE2846FDF778
:1027000019FD358A06F108001DB1B90530D50068FC
:102710003CE0F80601D4002300E01023CDE9009A44
:102720005A4606F120000499FFF710FEFDF7FEFC63
:102730000546FDF7C9FE2078401E10F0FF0121700C
:102740000ED100F01BF92148008848B1FDF7CCFEFE
:102750002846FDF7EFFC07B0BDE8F04F00F0DCB80D
:10276000FDF7C2FE07B02846BDE8F04FFDF7E2BC1A
:10277000006801255B46D0E90181CDF80090304624
:10278000049AFFF700FF6D1E4046ADB2002DF1D157
:10279000FDF7CCFC0546FDF797FE2078401E10F0B3
:1027A000FF00207001D100F0E9F8FDF79DFE2846FA
:1027B000FDF7C0FC380401D4FEF798FD0021AAF80B
:1027C000001007B0BDE8F08FA000002064000020DA
:1027D0000020074B014600BF00EB400203EB8202E2
:1027E000401C11811160C0B251602028F4D37047A1
:1027F000D045002010B5044690F83700FFF73AFFA7
:10280000074994F8370009788842204603D1BDE88B
:10281000104000F023B8BDE8104000F003B80000FD
:102820008600002090F837100B4A01EB410102EBC3
:10283000810100220B8943B15B1C0B810B68C0E94D
:1028400003320A6810610860704701230B81C2607F
:102850000261086048607047D045002090F837104A
:102860000A4A01EB410102EB810100220B893BB1D5
:102870005B1C0B81C2604A680261D060486070478F
:1028800001230B81C26002610860F7E7D045002098
:1028900010B50289002A14D0012A12D00021022A80
:1028A00007D0D0E90024D3681961C2E90314E260BB
:1028B00005E0D0E90023C2E90313C3E90321C0E91D
:1028C000003210BD70B5054690F83700114900EB95
:1028D000400001EB8001D5E90302002442B10B89DD
:1028E0005B1E0B81D06090B102612C61EC6070BD09
:1028F00028B10A89521E0A8104610860F5E70C813B
:102900000C604C6095F83700FFF7C4FEEDE74A60B5
:10291000EBE70000D045002010B5FDF707FC0B4A9F
:10292000002111700B4A0A49116051F8902F521C76
:102930000A6009490A68521C0A60084A4FF080512F
:102940001160BDE81040FDF7F5BB000087000020D6
:10295000FC440020E0000020B400002004ED00E072
:10296000044810B50078012803D1FDF707FE02499D
:10297000086010BDA0000020940000200A4810B597
:10298000007800280ED1FDF7F9FD08490968401AC2
:1029900007490A68824200D2086006490A688242F2
:1029A00000D2086010BD0000A000002094000020AC
:1029B000980000209C00002070B504461448007860
:1029C000012824D1FDF7B2FB0546FDF77DFD216806
:1029D000B1B11048814213D08A6D12B1521E8A657E
:1029E0000ED1208902280BD30B48007840B920462D
:1029F000FFF74EFF2068416D09B9084909688165F4
:102A0000FDF772FD2846BDE87040FDF793BB70BD31
:102A1000A800002034440020A0000020A4000020D2
:102A2000034A00211160034A1180018070470000B1
:102A3000AC000020B00000202DE9F84F1E46904663
:102A400089460446FDF772FB0090FDF73DFD208AA4
:102A500004F108074FF0000B50B1DFF8BCA09AF862
:102A60000010491CC9B28AF8001001291AD01BE0D5
:102A7000256A681C0CD06D1CC4E90858FDF734FDAC
:102A80000098FDF757FBA6F800B02846BDE8F88F80
:102A9000FDF72AFD0098FDF74DFB46F6C550308046
:102AA0000020F3E7FFF75CFFFDF71EFD0098FDF740
:102AB00041FB5FEA895002D53D893F680CE03F68E1
:102AC00001250023B9687F681A462046CDF80080AA
:102AD000FFF759FD6D1EADB2002DF2D1246AFDF74E
:102AE00025FB0546FDF7F0FC9AF80000401E10F0AB
:102AF000FF008AF8000001D1FFF740FFFDF7F4FC6A
:102B00002846FDF717FB5FEA094001D4FEF7EEFB0C
:102B1000A6F800B02046B9E7A000002038B504466A
:102B2000022531B16B46022200F03AFBBDF80000ED
:102B300028B184F836502046FFF7C4FE38BD032084
:102B400084F83600F7E70000074B0022C0F8BC20ED
:102B5000196829B1C0F8C010C1F8BC0018607047EE
:102B6000C0F8C020FAE70000B8000020D0E92F210B
:102B700000234AB181B1C2F8C010C1F8BC20C0F82E
:102B8000C030C0F8BC307047054A116009B1C1F8C7
:102B9000BC30C0F8C0307047C2F8C030F1E7000068
:102BA000B8000020044A00211160044A1180044A40
:102BB0001160018070470000B8000020BC000020B8
:102BC000B400002070B50025056085604560C560D3
:102BD000056145610446856129A0C4E90750656225
:102BE000A562E5622563E5872564E565A4F8605084
:102BF000002104F16400FFF7A1FB6567A567C4F835
:102C00008050A4F888500020C4F8845004EB800160
:102C1000401CCD6710F0FF00F8D06564C4F8A450E4
:102C2000C4F8A850A56384F88A50C4F8B050C4F81A
:102C3000AC50A5874FF00040C4E9120525656565D5
:102C4000A565A4F88C50A4F88E50C4F89050C4F830
:102C500094503434FDF792FCC4E91905C4F880504F
:102C6000C4F8845004F8015B202004F8015B04F8E8
:102C7000015B04F8850B04A020C4C4E9005070BDBA
:102C80003F5461736B000000200000002DE9FC5FE1
:102C90009946DDE90C7692468B460546FDF746FAE5
:102CA0008046FDF711FC474C2078401CC0B22070D4
:102CB000012801D1FFF754FEFDF716FC4046FDF751
:102CC00039FA0DB9404805680020308095F8360083
:102CD000DFF8F880082852D2DFE800F00404262646
:102CE00004042626CDE900764B465246594605F1A6
:102CF0006400FFF72BFBFDF719FA0546FDF7E4FB2F
:102D00002078401E10F0FF01217031D1FFF736FE10
:102D1000B8F8000060B3FDF7E7FB2846FDF70AFAB4
:102D2000BDE8FC5FFFF7F8BD95F834000228D9D163
:102D300053465A46294600200097FFF724FCFDF72A
:102D4000F5F90546FDF7C0FB2078401E10F0FF01A5
:102D5000217001D1FFF712FEFDF7C6FB2846FDF7F3
:102D6000E9F95FEA09402AD4BDE8FC5FFEF7BEBA84
:102D7000FDF7BAFB2846BDE8FC5FFDF7DBB9FDF7C0
:102D8000D5F90546FDF7A0FB2078401E10F0FF00A6
:102D900020700CD1FFF7F2FDB8F8000038B1FDF754
:102DA000A3FB2846FDF7C6F9FFF7B6FD04E0FDF7E3
:102DB0009BFB2846FDF7BEF946F62D603080BDE846
:102DC000FC9F0000A0000020DC0000206400002028
:102DD00010B5044600F050FA94F83600400704D4C9
:102DE0002046BDE81040FFF705BD10BD2DE9F041BC
:102DF0000D460446FDF79AF90746FDF765FB0026E8
:102E00002E8094F83600082864D2DFE800F004042D
:102E100004040D394955FDF767FB3846FDF78AF97B
:102E200047F25310288037E02F4D2878401CC0B25D
:102E30002870012801D1FFF793FDFDF755FB3846B7
:102E4000FDF778F994F88A00401E10F0FF0084F82E
:102E50008A0004D184F836602046FFF7B9FFFDF7F9
:102E600065F90446FDF730FB2878401E10F0FF019D
:102E7000297001D1FFF782FDFDF736FB204609E0FE
:102E800094F88A00401E10F0FF0084F88A001BD1DD
:102E900001200EE0FDF74EF9BDE8F041FEF726BA3D
:102EA00094F88A00401E10F0FF0084F88A000BD1CD
:102EB000022084F8360007E094F88A00401E10F0E3
:102EC000FF0084F88A0003D0FDF70EFB3846E1E7E7
:102ED0000320EEE7FDF708FB3846FDF72BF946F631
:102EE0002D602880BDE8F081A0000020044808B5CE
:102EF0000068FEF78FFC69460020FEF7CDFB08BD99
:102F0000DC0000202DE9F84F984691468B46064696
:102F1000FDF70CF90546FDF7D7FA594C2078401C0F
:102F2000C0B22070012801D1FFF71AFDFDF7DCFACD
:102F30002846FDF7FFF80EB9524806680020524FA8
:102F4000C6F84090A8F8000096F8360046F6C55A34
:102F5000082872D2DFE800F033332F2F33332F2FBE
:102F6000FDF7C2FA2846FDF7E5F8FFF7D5FC04E0C7
:102F7000FDF7BAFA2846FDF7DDF8A8F800A0002012
:102F8000BDE8F88F6D1C7564FDF7D0F80646FDF7B7
:102F90009BFA2078401E10F0FF00207047D1FFF709
:102FA000EDFC3888F0B3FDF79FFA3046FDF7C2F824
:102FB000FFF7B2FC62E096F83400072813D0756C76
:102FC000681CDFD1FDF7B2F80546FDF77DFA2078E1
:102FD000401E10F0FF002070CAD1FFF7CFFC3888E8
:102FE0000028C5D0BCE700231A4631461846CDF864
:102FF0000090FFF7C8FA756CFDF798F80646FDF7E4
:1030000063FA2078401E10F0FF00207001D1FFF716
:10301000B5FCFDF769FA3046FDF78CF85FEA0B4026
:103020002CD401E003E008E0FEF760F926E0FDF7AC
:103030005BFA3046FDF77EF820E0FDF777F80546AD
:10304000FDF742FA2078401E10F0FF0020700BD1EF
:10305000FFF794FC388838B1FDF746FA2846FDF7AB
:1030600069F8FFF759FC04E0FDF73EFA2846FDF742
:1030700061F846F62D60A8F80000002528467FE795
:10308000A0000020DC000020640000202DE9F041B9
:103090000D460446FDF74AF80746FDF715FA334892
:1030A00004B90468016832488C4209D1017839B109
:1030B000FDF71AFA3846FDF73DF846F6635052E040
:1030C0000021298094F836100126082944D2DFE82F
:1030D00001F0043133393B3B3B3B05460078401C53
:1030E000C0B22870012801D1FFF73AFCFDF7FCF9C6
:1030F0003846FDF71FF8042084F8360084F88A600B
:103100002046FFF7DFFBFDF711F80446FDF7DCF979
:103110002878401E10F0FF01297001D1FFF72EFC26
:10312000FDF7E2F94FEA0400FDF704F8BDE8F041CD
:10313000FEF7DCB8052000E0062084F8360084F8AD
:103140008A6005E00720F8E714F88A0F401C207019
:10315000FDF7CAF93846E7E7FDF7C6F93846FCF748
:10316000E9FF46F62D602880BDE8F081DC000020F4
:10317000A000002010B500200146074C074B06E0D8
:1031800004EBC002401C11609180D18080B21A888B
:103190009042F5D310BD000024410020783A000889
:1031A000F0B5324C47F27E2625680024042A08D068
:1031B000B1B32E4E082A36680E440BD0C0E9136115
:1031C00015E04A1B521E12F5803F2AD8521CC0E956
:1031D00013120CE0826C0A44571B7F1E8F4201D2EF
:1031E000C26400E0C664C16C4A1B02658164204A67
:1031F000C16C1288B1FBF2F602FB16111D4A89B2AE
:1032000002EBC102918889B11168F1B1CE6C761BD5
:103210000E65076DB74212D94E6966B13146F5E7C2
:10322000FFE7C4640465C4611E80F0BD446184612D
:10323000012110600BE0C0E90541486105E08D699E
:1032400075B1C0E90515686188619188491C918054
:10325000D58889B28D4200D2D180C2611C80F0BD78
:10326000C0E9051488611060EFE70000C00000208D
:10327000783A00082441002010B5C269002A15D010
:10328000002101651368834204D14369136033B19F
:10329000996104E0D0E90534636103B19C61416147
:1032A0008161C161C1649088401E908010BD0000A2
:1032B0002DE9F05FFCF73AFF0446FDF705F9554D9F
:1032C0002878401CC1B22970012901D1FFF748FBC1
:1032D000FDF70AF92046FCF72DFFFDF74FF9DFF85F
:1032E000388107464D49D8F800004FF00009401CCE
:1032F000C8F8000009884FF0030AB0FBF1F201FBA7
:103300001200474980B24FF0040B51F8304074B3BB
:1033100094F836006669082851D2DFE800F05004BE
:10332000501150295036E06CD8F80010421A22652E
:10333000884246D184F836902046FFF749FD3EE0AA
:10334000E06CD8F80010421A2265884239D1C4F8DE
:103350005C90A4F86090FDF711F920642046FFF717
:10336000E4F82046FFF734FD84F8369023E028E0A7
:10337000E06CD8F80010421A2265884221D184F806
:1033800036B02046FFF778FF19E0E06CD8F800105F
:10339000421A2265884214D1C4F85C90A4F8609067
:1033A000FDF7ECF820642046FFF7BFF82046FFF752
:1033B00063FF84F836B084F835A084F8349034463E
:1033C000A5E7FDF7DBF81749C01B0A68824200D267
:1033D0000860FCF7ABFE0446FDF776F82878401E3F
:1033E00010F0FF0129700DD1FFF7C8FA0E480088D0
:1033F00040B1FDF779F82046FCF79CFEBDE8F05F90
:10340000FFF78ABAFDF770F82046BDE8F05FFCF7D9
:1034100091BE0000A0000020C0000020783A000803
:1034200024410020C4000020640000201CB5084C8A
:1034300000216B4601AA0846FEF7F4F9BDF800002A
:103440000028F5D120780128F2D1FFF731FFEFE70E
:103450005900002030B504461A4889B0002505609F
:1034600019480560FFF786FE1848016841B1184900
:10347000184B0A681B689A4205D247F2132008E0ED
:1034800047F2122005E0144A13781F2B04D347F2A9
:103490001120208009B030BD0B2305950695CDE99C
:1034A00007340E4B096800681B68CDE90103CDE9BC
:1034B0000315107800900023094A0AA10E48FDF771
:1034C000E7FFE7E7C0000020C40000206C3A0008D6
:1034D000743A0008603A0008683A0008703A000838
:1034E0002D34000875432F4F532D49494920546905
:1034F000636B205461736B005047002030B52A4A3B
:1035000089B00021294B1160294C2A4A1D681DB140
:103510002468B4FBF5F303E023680A24B3FBF4F357
:1035200013601A46244B274D274C1A60234A11601A
:10353000234A1160002206E005EBC203521C998069
:10354000D98092B2196023889A42F5D31F4B1A682A
:1035500042B11F4A1F4D14682D68AC4205D247F294
:10356000483108E047F2473105E01B4C25781F2D14
:1035700004D347F24631018009B030BD0B250591D7
:103580000691CDE907501068144A1B681268CDE90E
:103590000301CDE90132207800900023104A11A1E7
:1035A0001648FDF775FFE7E7C80000207C3A0008E1
:1035B000643A0008D4000020D8000020D000002089
:1035C000CC000020AC4300208C3A0008803A000870
:1035D000883A0008603A00087A3A0008843A0008FD
:1035E0009936000875432F4F532D49494920546996
:1035F0006D6572205461736B000000001848002054
:1036000070B5022280F82A20204A012914681ED0B1
:10361000016AE1B11E4A214481611288B1FBF2F3D3
:1036200002FB13121B4B92B203EBC202002315687C
:103630007DB1091BC1611168D1B18D692D1BCD61AF
:10364000C669AE420ED90D6945B12946F5E7416A12
:10365000E0E703614361106001200BE0C0E9043141
:10366000086105E04C6964B1C0E904142061486157
:103670009088401C9080D18880B2814200D2D08056
:1036800070BDC0E9041348611060F1E7D00000206C
:103690008C3A0008AC4300201CB5DFF89090DFF8AE
:1036A00090A0244DDFF890B000216B4601AA084697
:1036B000FEF7B8F86846FDF757FEFCF75FFF0646D1
:1036C00028684FF00308401C2860B9F80010B0FBD0
:1036D000F1F201FB120080B25AF83040C4B1A06987
:1036E00029682769884213D1204600F027F8208DE9
:1036F000022808D084F82A80A26812B12046E16826
:1037000090473C46EAE701212046FFF779FFF3E7BF
:10371000FCF734FF841B6846FDF754FEDBF800100D
:10372000A142C1D2CBF80040BEE700008C3A0008AD
:10373000AC430020D0000020CC00002010B5104A7F
:1037400081691288B1FBF2F302FB13110D4A89B2B1
:1037500002EBC102002314680169844203D11160A5
:1037600029B14B6103E04469216101B14C61012140
:1037700080F82A10036143619088401E908010BD3C
:103780008C3A0008AC430020704730B58FB0282138
:103790006846FCF7FAFC14210AA8FCF7F6FC0121A4
:1037A0000804CDE900100024029402250491CDE91B
:1037B00007504FF4E01009906846FDF76DF960B9C5
:1037C0000F20CDE90A056802CDE90C4002210AA8C4
:1037D0000E94FDF77FF8002801D0FCF7D7FE0FB05C
:1037E00030BD704701680C3151E8002F22F490720F
:1037F00041E80023002BF5D10168143151E8002F76
:1038000022F0010241E80023002BF5D1016B0129D0
:1038100009D101680C3151E8002F22F0100241E873
:103820000023002BF5D1202180F8421000210163F4
:103830007047000070B5044600680169E26821F431
:103840004051114301612169A0680843616908433F
:103850002168CA6841F20C639A430243CA60206837
:103860004169A26921F44071114341611E492068F8
:10387000884202D1FDF7DAF801E0FDF7C7F800EB66
:10388000C00101EB0012606864218000B2FBF0F31C
:10389000B3FBF1F36FF018067343B2FBF0F5B2FB24
:1038A000F0F605EB8305322303EB0515B5FBF1F5C7
:1038B000B6FBF1F605F0F00505EB0615B2FBF0F6E8
:1038C000B2FBF0F0B0FBF1F06FF01802504306EBE2
:1038D000800003EB0010B0FBF1F0216800F00F0056
:1038E0002844886070BD0000003801402DE9F8438D
:1038F000984617460D460446089E24E0701C22D0C8
:10390000FCF760FFA0EB0800B0421AD8CEB12068E7
:10391000C168490717D5802D15D0402D13D00168F7
:10392000C94309070FD4016800254068009020466C
:10393000FFF758FF0820606484F840500120BDE87C
:10394000F8830320FBE72068006835EA000004D014
:103950000020B842D2D00020F1E70120F9E7FEE7CD
:103960000907090E002804DB00F1E02080F80014AC
:10397000704700F00F0000F1E02080F8141D704740
:1039800002E008C8121F08C1002AFAD17047704728
:10399000002001E001C1121F002AFBD17047000086
:1039A0008AB0FCF715FFFFF7F0FE09A8FDF780FBD2
:1039B000FDF7D2FAFDF708FB002006AB09AA0321A8
:1039C000059083E8070080220C23084CCDE90232E1
:1039D000CDE9001404900346054A06A1A4F54870F9
:1039E000FDF756FD09A8FDF727FDFEE704040020BA
:1039F000A1020008417070205461736B2053746100
:103A000072740000010202030405060708090A0B8C
:103A10000C0D0E0F1010000000000000000001024D
:103A20000304060708090000000001020304000067
:103A3000A43100200C00000080000000A43300200E
:103A40000A000000E43400200C00000080000000A8
:103A5000E43600208000000064000000E43800200C
:103A600040000000E80300000A000000243F00209E
:103A70000C0000008000000011000B000A00000094
:103A8000AC4100200C00000080000000110000008C
:103A9000B03A000800000020E4000000803900086F
:103AA000943B0008E4000020FC4B00009039000823
:103AB00001000000100000000000000000127A0069
:103AC00000000000000000000000000000000000F6
:103AD00000000000000000000000000000000000E6
:103AE00000000000000000000000000000000000D6
:103AF00000000000000000000000000000000000C6
:103B000000000000000000000000000000000000B5
:103B100000000000000000000000000000000000A5
:103B20000000000000000000000000000000000095
:103B30000000000000000000000000000000000085
:103B40000000000000000000000000000000000075
:103B50000000000000000000000000000000000065
:103B60000000000000000000000000000000000055
:103B70000000000000000000000000000000000045
:103B80000000000000000000000000000000000035
:043B90000000000031
:04000005080000ED02
:00000001FF
