:020000040800F2
:100000006004002001010008C3150008A9140008BD
:10001000C11500083B0A00081F1900080000000075
:10002000000000000000000000000000A116000811
:100030006F0A000800000000C51500084B170008F3
:100040001B0100081B0100081B0100081B01000820
:100050001B0100081B0100081B0100081B01000810
:100060001B0100081B0100081B0100081B01000800
:100070001B0100081B0100081B0100081B010008F0
:100080001B0100081B0100081B0100081B010008E0
:100090001B0100081B0100081B0100081B010008D0
:1000A0001B0100081B0100081B0100081B010008C0
:1000B0001B0100081B0100081B0100081B010008B0
:1000C0001B0100081B0100081B0100081B010008A0
:1000D0001B0100081B0100081B0100081B01000890
:1000E0001B0100081B0100081B010008DFF80CD0F1
:1000F00000F042FB004800472D2200086004002069
:100100000648804706480047FEE7FEE7FEE7FEE7B1
:10011000FEE7FEE7FEE7FEE7FEE7FEE7A5170008BD
:10012000ED000008202A04DB203A21FA02F0002129
:10013000704721FA02F3D040C2F1200291400843F7
:1001400019467047D2B201E000F8012B491EFBD2DC
:1001500070470022F6E710B513460A4604461946D2
:10016000FFF7F0FF204610BD2DE9FE4F804681EAE3
:100170000300C00F0C46009021F0004123F0004521
:10018000B8EB0200A94105D24046214690461C46E4
:100190000B46024623F00040104347D0270DC7F31B
:1001A0000A00C3F30A510290401A019040286BDA0A
:1001B000C3F3130040F4801B0098924620B1002343
:1001C000D2EB030A63EB0B0B01985946C0F14002D6
:1001D000504600F07CF906460D4650465946019AB5
:1001E00000F084F910EB08006141002487EA115205
:1001F00084EAE7731A4340D0009A62B3019A012A55
:100200004FEA075215DC001B61EB02014FF0004280
:1002100002EA0752CDE90042001C41F58011324646
:100220002B4600F0BBF903B0BDE8F08F40462146F5
:10023000F9E7001B61EB0201001C41F58013001877
:100240005B412018A2F5001747EB030140EAD57087
:10025000B6196D4111E06D084FEA360645EAC075E2
:100260004FEA0752001B61EB0201001C41F58011AF
:1002700049084FEA30000019514132462B4603B07D
:10028000BDE8F04F00F07BB9009801224000002348
:10029000D0EB020263EBE073009821464FEAE07472
:1002A000B8EB000061EB0401E9E783F000435BE792
:1002B00081F0004158E72DE9FE4F81EA030404F084
:1002C000004421F0004100944FF0000B23F0004364
:1002D00050EA01045ED052EA03045BD0C3F30A542F
:1002E000C1F30A552C44A4F2F3340194A0FB025448
:1002F000C1F3130141F48011C3F3130343F48013DA
:1003000001FB024400FB034E840A970A44EA81542D
:1003100047EA8357A4FB076802958D0A05FB07850A
:100320004FEA932C04FB0C542705029D4FEA065814
:1003300047EA1637B5EB08056EEB070C870E920EF1
:1003400047EA811742EA8312A7FB0201B6EB0B01D1
:1003500064EB00042B0D43EA0C335E1844EB1C5095
:10036000DA465146E7FB0201C5F313044FEA0B33AB
:1003700043EA14534FEA0432019C43EA0603A4F112
:100380000C040294009CCDE900B400F007F903B01E
:10039000BDE8F08F00200146F9E770B521F0004379
:1003A00003430CD0C1F30A550024D5EB040564EBDC
:1003B0000403D617AD1AB34102DB0020014670BD1D
:1003C000201841EB025170BD0EB540F2334102914D
:1003D0000021CDE900110A460B4600F0DFF803B01A
:1003E00000BD00F0004230F000400AD0C10D01F520
:1003F0006071C0F3160042EA0151C2084007114380
:10040000704700200146704701F0004330B421F0EE
:10041000004150EA010206D00A0DA2F56072C1F354
:100420001301002A02DC30BC00207047440F44EA6C
:10043000C104C100E01830BC00EBC25000F068B845
:1004400030B50B46014600202022012409E021FAA4
:1004500002F59D4205D303FA02F5491B04FA02F5A1
:100460002844151EA2F10102F1DC30BD2DE9F05F38
:100470000546002092469B46884606468146402413
:100480001BE02846414647462246FFF74BFE5346AF
:100490005A46C01A914110D311461846224600F020
:1004A00016F82D1A67EB01084F462246012000215D
:1004B00000F00DF817EB00094E41201EA4F10104D5
:1004C000DFDC484631462A464346BDE8F09F202AF5
:1004D00004DB203A00FA02F1002070479140C2F19B
:1004E000200320FA03F3194390407047202A06DBCB
:1004F000CB17203A41FA02F043EAE07306E041FAF2
:1005000002F3D040C2F120029140084319467047DF
:100510000029A8BF7047401C490008BF20F0010017
:10052000704710B4B0FA80FC00FA0CF050EA0104F5
:1005300004BF10BC704749B1CCF1200421FA04F487
:1005400011FA0CF118BF012121430843A3EB0C0160
:10055000CB1D4FEA00614FEA102042BF002010BCC3
:10056000704700EBC35010440029A4BF10BC704773
:10057000401C490008BF20F0010010BC704710B5B6
:10058000141E73F1000408DA401C41F100019218B6
:100590005B411A4301D120F0010010BD2DE9F04D5F
:1005A00092469B4611B1B1FA81F202E0B0FA80F2B4
:1005B00020329046FFF78BFF04460F4640EA0A00C0
:1005C00041EA0B0153465A46084313D0114653EAF9
:1005D000010019D0C8F140025046FFF7A3FD0546BF
:1005E0000E46504659464246FFF771FF084305D074
:1005F000012004E020463946BDE8F08D0020054387
:1006000046EAE0762C4337430A986305E40AA0EBF8
:1006100008000022FD0A44EA47540A3002D50020AF
:100620000146E9E7010510196941DDE908450019AE
:100630006941BDE8F04DA2E72DE9F04D81EA0304E0
:1006400004F0004B21F0004514464FF0000A23F05F
:10065000004150EA050220D054EA01021DD0C5F342
:100660000A570246C5F31303C1F31300C1F30A5638
:1006700040F4801543F48013A7EB0608101BD64600
:1006800008F2FD3873EB050002D308F1010801E020
:1006900092185B41B8F1000F03DA00200146BDE873
:1006A000F08D00204FF48011064684460EE0171BA3
:1006B00073EB050705D3121B63EB050306434CEAF6
:1006C000010C49084FEA300092185B4150EA0107DB
:1006D000EDD152EA030012D082EA040083EA050158
:1006E000084305D0101BAB4106D20122002306E0CF
:1006F00000224FF0004302E06FF0010253101AEBAA
:1007000006004CEB085110EB0A0041EB0B01BDE871
:10071000F04DFFF734BFC1F30A52C1F3130140F2A9
:10072000FF3341F480119A4202DA002001467047FB
:1007300040F233439A42A2F2334202DC5242FFF7C4
:10074000F1BCFFF7C4BE000030B5041E71F1000417
:1007500004DB4FF00044404264EB0101141E73F1CE
:10076000000405DB1C464FF00043524263EB0403D8
:10077000994208BF904230BD064C074D06E0E06844
:1007800040F0010394E8070098471034AC42F6D3D8
:10079000FFF7B0FC202300084023000810B500F04C
:1007A0009BFE00F082FE702000F022F900F00CFFAA
:1007B000A82000F01DF900F007FF002000F018F954
:1007C00000F002FF002000F013F900F0FDFE00F041
:1007D000AAFF0A2000F04CF900F067FE702000F03C
:1007E00007F900F0F1FEBE2000F002F900F0ECFE87
:1007F000082000F0FDF800F0E7FE002000F0F8F817
:1008000000F0E2FE00F08FFFBDE810400A2000F08B
:100810002FB900002DE9F041002500F003FF00F0A2
:1008200009FF082000F075FF0024114F00F0F2FED0
:1008300000F038F900268021384600F059FA00B15E
:10084000012646EA4500C5B200224021384600F0A4
:100850005CFA00F027F9641CE4B2082CE6D300F03F
:10086000E9FE082000F055FF2846BDE8F0810000B1
:10087000000C01402DE9F0418AB0002406468DF8B5
:100880001C408DF820408DF810408DF80C408DF8FC
:1008900018408DF814408DF81C40274625460194D9
:1008A000029400F08AF8502000F0E2F840F2E45898
:1008B00007E0404600F02DFF28466D1CADB26428CD
:1008C00003D200F069F80006F3D400F0EEFD7120C9
:1008D00000F08EF800F078FEFFF79CFF8DF81C000A
:1008E0008DF8040000F0DDFEFFF794FF8DF8200086
:1008F0008DF8050000F0D5FEFFF78CFF8DF8100095
:100900008DF8060000F0CDFEFFF784FF8DF80C0097
:100910008DF8070000F0C5FEFFF77CFF8DF818008A
:100920008DF8080000F0BDFEFFF774FF8DF814008D
:100930008DF8090000F0B5FEFFF76CFF8DF81C0084
:1009400000F0CBFE00F0EFFE062101A800F076F8E3
:100950009DF81C1088421CD19DF820009DF81010B5
:10096000074341EA07209DF80C1041EA00200009E6
:1009700030609DF80C009DF8181041EA00209DF8A9
:10098000141041EA0020C0F3130070600AB0BDE803
:10099000F08134607460F9E710B500F086FD7120D5
:1009A00000F026F800F010FEFFF734FF044600F0D8
:1009B00094FE00F0B8FE204610BD10B500F075FDA5
:1009C000702000F015F800F0FFFDAC2000F010F8EA
:1009D00000F0FAFD332000F00BF800F0F5FD0020E8
:1009E00000F006F800F0F0FDBDE8104000F09BBEFE
:1009F00070B505468026002400F014FE00F043F890
:100A00002E4202D000F024FE01E000F035FE00F09E
:100A100001FE00F038F86806641C050EE4B2082CEC
:100A2000EAD300F0FFFD082000F073FE00F002FEA4
:100A3000BDE87040082000F06CBEFEE770B50446CB
:100A4000FF20002231250FE0A35C58400823060652
:100A500002D585EA400000E040005B1EC0B213F002
:100A6000FF03F4D1521CD2B28A42EDD370BD70475D
:100A700010B503464FF47A7402E0204600F049FEB8
:100A80005B1EFAD210BD00B5012000F01DF8012058
:100A900000F01AF8012000F017F801205DF804EBCF
:100AA00000F012B800B5012000F00EF8012000F0AF
:100AB0000BF8012000F008F8012000F005F80120F3
:100AC0005DF804EBAFF30080401EFDD270470000DC
:100AD000054C4FF4FA750121204600F00EF9284626
:100AE00000F004F8F7E700000008014070B5044684
:100AF00000F010F90546601C02D004480078044458
:100B000000F008F9401BA042FAD370BD000000209D
:100B10002DE9F84FDFF8B8910024A9F1040B234622
:100B20000F2709F1040AABF1040EC9E00125A54025
:100B30002A40AA427DD1674ED1F804C0ACEB06082A
:100B4000B44532D014DCBCF1030F3AD009DCBCF15F
:100B5000000F2AD0BCF1010F1CD0BCF1020F31D123
:100B60001DE0BCF1110F17D0BCF1120F2AD119E012
:100B7000B8F5881F19D006DCB8F5803F15D0B8F558
:100B8000801F1FD111E0B8F5001F0ED0B8F5041F6B
:100B900018D10AE0CB6815E0CB681B1D12E0CB68CA
:100BA00008330FE0CB680C330CE08B682BB1012BC2
:100BB0004FF0080303D0456104E0042302E005611F
:100BC00000E00023FF2A01D8064601E000F10406F8
:100BD0004FEA840501D9A5F12005D6F8008007FA6F
:100BE00005FC28EA0C0803FA05F548EA0508C6F8EA
:100BF00000804D68ED0062D5374DAE6946F00106C4
:100C0000AE61AD6924F0030605F001050095334D92
:100C100006EB050CDCF80850A607360F07FA06F8B5
:100C200025EA0805DFF8B880404503D14FF00008F9
:100C300017E044E0DFF8AC80404502D14FF00108F6
:100C40000FE0DFF8A480404502D14FF0020808E031
:100C5000DFF89880404502D14FF0030801E04FF0E3
:100C6000040808FA06F848EA0508CCF808804D6838
:100C7000D9F80060ED024D4601D5164300E09643D9
:100C80002E604D68DAF80060AD02554601D5164376
:100C900000E096432E604D68DBF80060AD035D46D2
:100CA00001D5164300E096432E604D68DEF80060E3
:100CB000ED03754601D5164300E096432E60641C93
:100CC0000D682A46E5407FF431AFBDE8F88F00009B
:100CD0000804014000001110001002400000014013
:100CE00000080140000C01400010014000140140C8
:100CF0008068084000D001207047C26821EA0203E2
:100D00000A4043EA0241016170470AB1016170473C
:100D10000904FBE7014880687047000000000020DC
:100D20000248816802781144816070470000002009
:100D3000074810B5016841F010010160032000F080
:100D400067F80F2000F006F800F024F8002010BD2E
:100D50000020024070B50D4D04464FF47A7128789A
:100D6000B1FBF0F00A490968B1FBF0F000F0CEFAEF
:100D700048B9102C07D200222146501E00F028F856
:100D800000206C6070BD012070BD000000000020DC
:100D90000C0000200C4808B5816941F00101816117
:100DA000816901F001010091C16941F08051C16187
:100DB000C06900F0805000900448416821F0E06173
:100DC00041F00071416008BD001002400000014088
:100DD000F0B40E4B1B680C46C3F30223C3F10705A6
:100DE000042D00D90425191D072901D2002300E094
:100DF000DB1E012606FA05F1491E214099409E405E
:100E0000761E16403143F0BC00F09ABD0CED00E0B8
:100E1000064900F0070208684FF6FF03184040EA51
:100E20000220034A10430860704700000CED00E008
:100E30000000FA052DE9F0470F46050061D0434E4A
:100E4000306800F00700B84209D2306820F007008F
:100E500038433060306800F00700B84251D128684C
:100E60003B4C810712D5400703D5606840F4E06031
:100E700060602878000703D5606840F460506060C7
:100E80006068A96820F0F000084360602878C00717
:100E900028D06868012810D02168022810D089075E
:100EA00000292EDA616821F0030101436160FFF738
:100EB00031FF804641F288390DE021688903EFE770
:100EC0008901EDE7FFF726FFA0EB0801494502D9AC
:100ED0000320BDE8F0876068696800F00C00B0EBA3
:100EE000810FEFD1306800F00700B8420BD93068AD
:100EF00020F0070038433060306800F00700B84247
:100F000001D00120E5E72878400705D56068E96849
:100F100020F4E060084360602878000706D5606828
:100F2000296920F4605040EAC100606000F038F8A0
:100F30006168084AC1F30311515CC8400649086062
:100F400006480068FFF706FF0020C2E700200240C5
:100F500000100240062300080C00002004000020BE
:100F60000448054900684968044AC1F30221515CFC
:100F7000C84070470C0000200010024016230008F3
:100F80000448054900684968044AC1F3C221515C1C
:100F9000C84070470C0000200010024016230008D3
:100FA0000E4A51680E4801F00C03042B11D0082B97
:100FB0000FD10C48C1F38343C903C05C0AD5516803
:100FC000084AC1F34041921E515C054A5043B0FBB0
:100FD000F1F0704704494843704700000010024098
:100FE00000127A00F622000800093D002DE9F84FB2
:100FF000040070D02078C04DC00749D06868C0F3A5
:101000008100012807D06868C0F38100022809D157
:101010006868C00306D52868800339D56068002851
:10102000E7D035E06068B0F5803F0BD010B1B0F587
:10103000A02F11D0286820F480302860286820F480
:10104000802002E0286840F480302860606890B119
:10105000FFF760FE06460AE0286840F4802028601A
:10106000F0E700BFFFF756FE801B642873D828689E
:101070008003F7D50CE0FFF74DFE064605E000BF04
:10108000FFF748FE801B6428F0D828688003F7D457
:1010900020789A4E80074FF001094FF0000839D5AB
:1010A000686810F00C0F07D06868C0F38100022850
:1010B00009D16868C00306D42868800714D5206960
:1010C000012808D110E02069B0B1C6F80090FFF700
:1010D00021FE074605E00AE1FFF71CFEC01B0228BF
:1010E000C4D828688007F7D52868616920F0F8001F
:1010F00040EAC10028600DE0C6F80080FFF70AFE54
:10110000074604E0FFF706FEC01B022823D8286824
:101110008007F7D4207800072CD57948A169D9B188
:10112000C0F80090FFF7F6FD074604E0FFF7F2FD78
:10113000C01B02280FD8686A8007F7D571484FF4A2
:10114000FA510068B0FBF1F0009000BF0098411E1A
:101150000091FAD20EE080E0C0F80080FFF7DAFDDF
:10116000074604E0FFF7D6FDC01B022875D8686A61
:101170008007F7D42078400760D5E8690027C000D1
:1011800008D4E86940F08050E861E869012700F080
:10119000805000905C480168C90513D401688346FB
:1011A00041F480710160FFF7B5FD824606E000BFA3
:1011B000FFF7B0FDA0EB0A0064284ED8DBF8000072
:1011C000C005F5D5E06801280AD008B1052813D07C
:1011D000286A20F001002862286A20F0040002E05A
:1011E000286A40F001002862E06841F2883B98B12B
:1011F000FFF790FD82460BE0286A40F00400286269
:10120000EEE700BFFFF786FDA0EB0A0159455AD86B
:10121000286A8007F6D50CE0FFF77CFD824605E0E2
:10122000FFF778FDA0EB0A0159454CD8286A8007E2
:10123000F6D41FB1E86920F08050E861E06988B316
:101240006968C1F38101022944D00228C6F8608090
:1012500004D0FFF75FFD044638E034E0FFF75AFDA5
:10126000074604E0FFF756FDC01B02282BD828686C
:101270008001F7D4206AB0F5803F05D16868A16885
:1012800020F4003008436860D4E908010843696825
:1012900021F4741108436860C6F86090FFF73AFDC6
:1012A000044606E025E000BFFFF734FD001B0228DE
:1012B00009D828688001F7D51BE000BFFFF72AFD99
:1012C000001B022802D90320BDE8F88F286880019E
:1012D000F4D40EE00128F7D06868226A00F4803167
:1012E000914204D1616A00F47010884201D001205B
:1012F000EAE70020E8E70000001002400000424258
:10130000800442420C0000200070004010B5401ED6
:10131000B0F1807F01D3012010BD4FF0E024606167
:101320000F21601700F00CFB0020A0610720206156
:10133000002010BD70B5040004D094F841000025D1
:1013400010B106E0012070BD84F84050204600F046
:1013500023F8242084F841002068C16821F400515A
:10136000C160204600F046FA2068016921F49041EE
:1013700001612068416921F02A0141612068C1684A
:1013800041F40051C1606564202084F8410084F874
:1013900042006563002070BD30B585B00024009424
:1013A00001940294039400681449884224D114489B
:1013B000816941F480418161816901F48041049136
:1013C000816941F00401816180690E4D00F00400E3
:1013D00004904FF4007000900220019003200390CD
:1013E00069462846FFF794FB2815CDE900046946B5
:1013F00028460294FFF78CFB05B030BD0038014051
:1014000000100240000801402DE9F843044690F81E
:101410004100984616460D46202802D00220BDE81D
:10142000F88385B17EB100206064212084F84100FA
:10143000FFF770FCA6848146E684A0682027B0F5FB
:10144000805F02D003E00120E9E7206910B12E4659
:1014500000250EE000260CE08021204600F026FA50
:10146000A8B9C6B116F8010B21684860E08C401E8F
:10147000E084E08C4B464FF00002CDF8008000285D
:10148000EAD14FF04001204600F010FA40B184F854
:1014900041700320C3E735F8020BC0F30800E3E70F
:1014A00084F841700020BAE7FEE710B500F0D0F8EC
:1014B000082000F02EF900F0ADF8082000F029F91E
:1014C00000F0DAF8082000F024F900F0ABF8BDE8ED
:1014D0001040082000F01DB97FB501248020CDE91F
:1014E00000040D4E0325694603953046FFF710FBB7
:1014F000012280213046FFF708FC4020CDE900049E
:10150000694603953046FFF703FB01224021304630
:10151000FFF7FBFB7FBD0000000C014070B586B0FB
:10152000164800250295816941F0080181618169B1
:1015300001F008010491816941F004018161806931
:10154000012400F004000490C020CDE90004032031
:101550000B4E039069463046FFF7DAFA0122C021AC
:101560003046FFF7D2FB0220CDE9025000946946D5
:1015700001940448FFF7CCFA06B070BD0010024099
:10158000000C0140000801400C4810B50A490160F8
:101590004FF4E1314160002181600C22C160C0E95B
:1015A00004128161C161FFF7C5FE002803D0BDE8C8
:1015B0001040FFF78DBA10BD003801401400002024
:1015C000FEE7FEE77047000070B5002400F02AF83F
:1015D00000F030F8082000F09CF800F01BF808201C
:1015E00000F097F80A4D01E0641CA4B2802128465F
:1015F000FFF77EFB08B1642CF6D3642C06D000F014
:1016000011F8082000F085F8012070BD002070BDA1
:10161000000C0140012240210148FFF776BB000089
:10162000000C0140002240210148FFF76EBB000082
:10163000000C01401FB50020019080200090032085
:10164000039069460148FFF763FA1FBD000C014093
:101650001FB501200190802000900320054C0390CD
:1016600069462046FFF754FA012280212046FFF701
:101670004CFB1FBD000C01401FB5012001908020D4
:1016800000900320054C039069462046FFF740FA7E
:10169000002280212046FFF738FB1FBD000C0140CF
:1016A000704710B5FFF7BEFF082000F032F8FFF7D3
:1016B000E3FF082000F02DF8FFF7ACFF082000F052
:1016C00028F8FFF7AFFF082000F023F8FFF7B2FF7C
:1016D000BDE81040082000F01CB810B5FFF7A2FFCD
:1016E000082000F016F8FFF7B3FF082000F011F80B
:1016F000FFF790FF082000F00CF8FFF793FF082099
:1017000000F007F8FFF7B8FFBDE810400820AFF37E
:10171000008000B5801E020004D00120FFF7D4F93C
:10172000521EFAD100BD10B5FFF7A6FF0820FFF743
:10173000F0FFFFF76FFF0820FFF7EBFFFFF788FFD1
:10174000BDE810400820FFF7E4BFFFF7E9BA30B565
:101750008FB028216846FEF7FCFC14210AA8FEF78A
:10176000F8FC0120009000040024CDE901040225CA
:10177000CDE907504FF4E01009906846FFF736FCBA
:1017800060B90F20CDE90A056802CDE90C400221BD
:101790000AA80E94FFF74EFB002801D0FFF798F936
:1017A0000FB030BD704701680C3151E8002F22F4B2
:1017B000907241E80023002BF5D10168143151E803
:1017C000002F22F0010241E80023002BF5D1016B2C
:1017D000012909D101680C3151E8002F22F01002D3
:1017E00041E80023002BF5D1202180F84210002190
:1017F0000163704770B5044600680169E26821F42E
:101800004051114301612169A0680843616908439F
:101810002168CA6841F20C639A430243CA60206897
:101820004169A26921F44071114341611E49206858
:10183000884202D1FFF7A4FB01E0FFF791FB00EB28
:10184000C00101EB0012606864218000B2FBF0F37C
:10185000B3FBF1F36FF018067343B2FBF0F5B2FB84
:10186000F0F605EB8305322303EB0515B5FBF1F527
:10187000B6FBF1F605F0F00505EB0615B2FBF0F648
:10188000B2FBF0F0B0FBF1F06FF01802504306EB42
:10189000800003EB0010B0FBF1F0216800F00F00B6
:1018A0002844886070BD0000003801402DE9F843ED
:1018B000984617460D460446089E24E0701C22D028
:1018C000FFF728FAA0EB0800B0421AD8CEB1206882
:1018D000C168490717D5802D15D0402D13D0016858
:1018E000C94309070FD401680025406800902046CD
:1018F000FFF759FF0820606484F840500120BDE8DC
:10190000F8830320FBE72068006835EA000004D074
:101910000020B842D2D00020F1E70120F9E7FEE72D
:101920000FB4054B10B503A9044A029800F0DAF889
:1019300010BC5DF814FB0000152200081000002008
:101940000907090E002804DB00F1E02080F80014EC
:10195000704700F00F0000F1E02080F8141D704780
:1019600002E008C8121F08C1002AFAD17047704768
:10197000002001E001C1121F002AFBD170470000C6
:101980002DE9FF5FDDE90220010DDDF838B00243EB
:1019900018D044F61050A1F2FF3141430D140F98B6
:1019A000012820D0A5EB0B00401C5FEA000A4FF095
:1019B0000004474EDFF81C91A046504616D5CAF1E8
:1019C000000728E00F98012443A2012808D0002135
:1019D00000980F9BC0E90021C0E90243BDE8FF9FCA
:1019E0006FEA0B01F4E7CBF10000DEE7074612E0F7
:1019F000F80707D02246334640464946FEF75BFCCF
:101A0000804689462246334610461946FEF753FC67
:101A100004460E467F10002FEAD1DDE90201BAF13B
:101A2000000F42464B4602DAFEF745FC01E0FEF7A6
:101A300003FE04460E460022284BFEF785FE03D81F
:101A40004FF0FF30014607E00022254B204631468B
:101A5000FEF78AFBFEF75FFE102409E0002C0ADB8C
:101A60000A220023FEF702FD019B30321A55641E44
:101A700050EA0102F2D1641C019AC4F1110314442A
:101A80000F9A012A03D0012208430DD10AE008432E
:101A900004D000204FF0110B0F9080E7A3EB0B0553
:101AA0006D1E0DE05B4504DD4FF0000205F1010500
:101AB00004E003DA4FF00002A5F10105002AECD0A2
:101AC00000980F99C0E90231C0E9004586E700009F
:101AD000000024400000F03F300000000000F04310
:101AE0000000E03F2DE9FF4F95B09B468946064632
:101AF00000250FE2252877D100242746F84A012146
:101B0000059400E0044316F8013F203B01FA03F07E
:101B10001042F7D130782A2811D06FF02F03307897
:101B2000A0F13002092A16D8059A44F0020402EB0B
:101B3000820203EB42021044761C0590EFE759F84D
:101B4000042B0592002A03DA504244F40054059015
:101B500044F00204761C30782E2816D116F8010FB6
:101B600044F004042A280DD06FF02F023078A0F141
:101B70003003092B09D807EB870302EB4303C7188F
:101B8000761CF3E759F8047B761C30786C280FD06C
:101B900006DC4C2817D068280DD06A2814D104E040
:101BA000742810D07A280FD10DE044F400140AE014
:101BB00044F4801401E044F440147278824202D16B
:101BC00004F58014761C761C307866280BD013DC64
:101BD000582877D009DC002875D04528F6D046284B
:101BE000F4D047281AD19DE118E0632835D0642845
:101BF00079D0652812D195E1702873D008DC672868
:101C0000F1D069286FD06E280DD06F2806D1B5E0CD
:101C100073282CD0752875D0782874D05A46179917
:101C200090476D1C75E1C4F30250022809D00328C7
:101C30000DD0D9F8001004280DD00D6009F1040969
:101C400067E1D9F80010EA17C1E90052F6E7D9F8C0
:101C500000100D80F2E70D70F0E719F8041B8DF805
:101C6000001000208DF80100EA46012003E059F839
:101C700004AB4FF0FF3061074FF0000102D40DE0DC
:101C800008F101018846B9420FDA8045F8DB1AF8FD
:101C900008100029F4D108E008F1010188468142CA
:101CA000FADB1AF808100029F6D105985B46A0EB7C
:101CB000080721463846179A00F094FA284400EBAA
:101CC000080507E04DE029E10DE01AF8010B5A463E
:101CD00017999047B8F10108F7D25B46214638467C
:101CE000179A13E142E00A220092C4F302524FF025
:101CF000000A022A08D059F804CB032A4FEAEC71F3
:101D00000AD00DE029E02AE009F1070121F00702DD
:101D1000F2E802C1914609E00FFA8CFC4FEAEC713F
:101D2000042A03D14FFA8CFC4FEAEC71002907DA40
:101D30000A460021DCF1000C61EB02012D2202E0D9
:101D4000220504D52B228DF80420012203E0E207AE
:101D500001D02022F7E7904659E00A2102E0102244
:101D60000DE010214FF0000A00910BE010224FF01F
:101D7000000A44F004040827009203E008224FF010
:101D8000000A0092C4F30252022A05D059F804CB8B
:101D90000021032A08D009E009F1070121F0070218
:101DA000F2E802C1914605E01FFA8CFC042A01D139
:101DB0000CF0FF0C4FF00008220728D5702806D041
:101DC000009B83F0100353EA0A0305D00EE0402283
:101DD0008DF80420012208E05CEA010206D03022DE
:101DE0008DF804208DF8050002229046009B83F0B8
:101DF000080353EA0A030AD15CEA010201D162072F
:101E000005D530228DF804204FF001087F1E582898
:101E100004D034A003900EA802900DE036A0F9E79C
:101E200053466046009AFEF721FB84460398825C85
:101E30000298401E029002705CEA0100F0D1029804
:101E400006A9081A00F1200A600702D524F480349C
:101E500000E00127574502DDA7EB0A0000E0002063
:101E600000EB0A01009005984144401A0590E003F8
:101E700006D45B462146179A059800F0B3F905444D
:101E8000002706E001A85A46C05D179990476D1CCF
:101E90007F1C4745F6DBE0030CD55B462146179ACD
:101EA000059800F09FF9054404E030205A46179940
:101EB00090476D1C0099481E00900029F5DC08E051
:101EC000029802995A460078491C02911799904746
:101ED0006D1CBAF10001AAF1010AF1DC65E1000014
:101EE00009280100303132333435363738396162F0
:101EF00063646566000000003031323334353637B4
:101F000038394142434445460000000000F058F98A
:101F10000544761C307800287FF4ECAD19B02846D3
:101F2000BDE8F08F620700D4062709F1070222F00E
:101F3000070CFCE80223E14603F000485FEA080CC6
:101F400002D00FF2702C0DE05FEA045C02D50FF2B4
:101F5000682C07E05FEAC47C02D00FF2602C01E03D
:101F6000AFF2700C4FF0FF3823F00043CDF850C0B3
:101F700065280CD006DC452809D046281DD0472806
:101F80003DD13DE0662818D067287ED138E0002199
:101F9000112F01DB112000E0781CCDE9000106A91A
:101FA0000EA8FFF7EDFCDDE90F010E9A0391002169
:101FB000009207F1010A04914DE04FF000400097B4
:101FC000CDE9011006A90EA8FFF7DAFCDDE90F0242
:101FD00003920E9B11990022DDF80CA0009304924D
:101FE00011B9791C00EB010AB7EB0A0004D4C0F167
:101FF000FF3007F1010A0490AAEB0700019044E0CA
:10200000012F00DA01270021112F01DD112000E04E
:102010003846CDE9000106A90EA8FFF7B1FCDDE9BD
:102020000F010E9A0391002104910092BA462107F4
:102030000CD40399514500DA8A46BAF1010F05DD47
:10204000009AAAF10101515C302908D0B84202DAA5
:1020500010F1040F06DA0121CDE9011015E0AAF113
:102060000101E9E7002805DC049901440491AAEB89
:10207000000102E0411C514500DD8A460499401AE6
:10208000401C01904FF000400290200704D40198BA
:10209000504501DBCDF8048000208DF84F000298F8
:1020A0000DF14F07B0F1004F25D02B200E90029874
:1020B0004FF0020800280CDA404202902D200E90CA
:1020C00007E00A210298FEF7BBF93031029007F8C9
:1020D000011DB8F10001A8F10108F2DC0298002806
:1020E000EFD1791E0E980870307800F0200040F093
:1020F000450007F8020D12A8C01B00F1070814984C
:10210000007800B1012000EB0A01019801EBE071B9
:1021100005984144401A401E0590E00306D45B46F2
:102120002146179A059800F05DF805441498007848
:1021300018B15A46179990476D1CE00324D55B46A9
:102140002146179A059800F04DF805441CE00498C4
:10215000002807DBDDE90301884203DD0098405CCD
:10216000179901E0179930205A469047049805F1D5
:102170000105401C04900198401E019004D12E20BE
:102180005A46179990476D1CBAF10001AAF1010A4D
:10219000DDDC05E017F8010B5A46179990476D1CD6
:1021A000B8F10001A8F10108F4DC5B462146179A5A
:1021B0000598ABE62D0000002B0000002000000079
:1021C0002DE9F041044600251E461746880404D434
:1021D00005E039462020B0476D1C641EF9D528461D
:1021E000BDE8F0812DE9F041044600251E469046E9
:1021F000C80301D5302700E02027880404D505E076
:1022000041463846B0476D1C641EF9D52846BDE8E6
:10221000F081000013B54FF6FF73012269460248B2
:10222000FFF7F2F800981CBD140000201FB5FEF760
:102230007FFDFFF78CFAFFF771F9FFF7A5F9FEF7BD
:10224000ADFA6420FEF752FCDFF87480DFF874907A
:10225000DFF874A06FF013064FF4FA6B02A8FEF7D4
:1022600009FB0298FEF7B0F800224346FEF723F878
:102270003246FEF792F8FEF7C7F805460398FEF7D8
:10228000A3F800224B46FEF716F83246FEF785F813
:1022900000225346FEF709F8FEF7B6F8FEF7A1F85C
:1022A00004460F462846FEF79CF8CDE90047024653
:1022B0000B4606A0FFF734FB5846FEF717FCCDE7A8
:1022C000000059400000694000004940E6B9BFE500
:1022D000BAA63A20252E326620252552482C20E623
:1022E000B8A9E5BAA63A20252E326620C2B0430D21
:1022F0000A000000010202030405060708090A0B90
:102300000C0D0E0F10100000000000000000010274
:10231000030406070809000000000102030400008E
:10232000402300080000002014000000601900088D
:1023300054230008140000204C0400007019000809
:1023400001000000100000000000000000127A00F0
:042350000000000089
:04000005080000ED02
:00000001FF
