:020000040800F2
:1000000038090020010100080F1600085F120008DF
:100010000D160008D70400087B1800080000000037
:10002000000000000000000000000000131600089F
:10003000D904000800000000111600081516000879
:100040001B0100081B0100081B0100081B01000820
:100050001B0100081B0100081B0100081B01000810
:100060001B0100081B0100081B0100081B01000800
:100070001B0100081B0100081B0100081B010008F0
:100080001B0100081B0100081B0100081B010008E0
:100090001B0100081B0100081B0100081B010008D0
:1000A0001B0100081B0100081B0100081B010008C0
:1000B0001B0100081B0100081B0100081B010008B0
:1000C0001B0100081B0100081B0100081B010008A0
:1000D0001B0100081B0100081B0100081B01000890
:1000E0001B0100081B0100081B010008DFF80CD0F1
:1000F00000F0D0F900480047451B000838090020EF
:100100000648804706480047FEE7FEE7FEE7FEE7B1
:10011000FEE7FEE7FEE7FEE7FEE7FEE771160008F2
:10012000ED000008202A04DB203A21FA02F0002129
:10013000704721FA02F3D040C2F1200291400843F7
:100140001946704740EA01039B0703D009E008C93C
:10015000121F08C0042AFAD203E011F8013B00F88C
:10016000013B521EF9D27047D2B201E000F8012BD8
:10017000491EFBD270470022F6E710B513460A4627
:1001800004461946FFF7F0FF204610BD2DE9FE4F4B
:1001900081EA030404F0004421F0004100944FF090
:1001A000000B23F0004350EA01045ED052EA03043E
:1001B0005BD0C3F30A54C1F30A552C44A4F2F334C0
:1001C0000194A0FB0254C1F3130141F48011C3F365
:1001D000130343F4801301FB024400FB034E840A23
:1001E000970A44EA815447EA8357A4FB07680295BB
:1001F0008D0A05FB07854FEA932C04FB0C54270559
:10020000029D4FEA065847EA1637B5EB08056EEB34
:10021000070C870E920E47EA811742EA8312A7FB6A
:100220000201B6EB0B0164EB00042B0D43EA0C3327
:100230005E1844EB1C50DA465146E7FB0201C5F359
:1002400013044FEA0B3343EA14534FEA0432019C80
:1002500043EA0603A4F10C040294009CCDE900B427
:1002600000F0CAF803B0BDE8F08F00200146F9E7BE
:100270002DE9F04D81EA030404F0004B21F0004524
:1002800014464FF0000A23F0004150EA050220D046
:1002900054EA01021DD0C5F30A570246C5F3130301
:1002A000C1F31300C1F30A5640F4801543F48013E0
:1002B000A7EB0608101BD64608F2FD3873EB0500C5
:1002C00002D308F1010801E092185B41B8F1000F78
:1002D00003DA00200146BDE8F08D00204FF48011C4
:1002E000064684460EE0171B73EB050705D3121B69
:1002F00063EB050306434CEA010C49084FEA300062
:1003000092185B4150EA0107EDD152EA030012D086
:1003100082EA040083EA0501084305D0101BAB41C3
:1003200006D20122002306E000224FF0004302E043
:100330006FF0010253101AEB06004CEB085110EB62
:100340000A0041EB0B01BDE8F04D00F046B80EB5D8
:10035000C10F80EAE0700844CA07002140F233432D
:100360008DE80E000A460B4600F046F803B000BDCB
:1003700070B5C1F30A5201F000450024C1F3130126
:1003800040F2FF3341F480119A4201DA002070BD3F
:1003900040F233439A42A2F2334203DC5242FFF767
:1003A000C1FE00E090402C43F1D0404270BD30B51A
:1003B0000B46014600202022012409E021FA02F523
:1003C0009D4205D303FA02F5491B04FA02F52844BD
:1003D000151EA2F10102F1DC30BD10B5141E73F13F
:1003E000000408DA401C41F1000192185B411A43F5
:1003F00001D120F0010010BD2DE9F04D92469B4641
:1004000011B1B1FA81F202E0B0FA80F220329046E6
:1004100000F052F804460F4640EA0A0041EA0B0198
:1004200053465A46084313D0114653EA010019D0E7
:10043000C8F140025046FFF775FE05460E4650468D
:100440005946424600F038F8084305D0012004E040
:1004500020463946BDE8F08D0020054346EAE076A7
:100460002C4337430A986305E40AA0EB08000022F6
:10047000FD0A44EA47540A3002D500200146E9E764
:10048000010510196941DDE9084500196941BDE818
:10049000F04DA2E7064C074D06E0E06840F001038E
:1004A00094E8070098471034AC42F6D3FFF722FED9
:1004B000A49E0008C49E0008202A04DB203A00FA0B
:1004C00002F1002070479140C2F1200320FA03F3AB
:1004D000194390407047FEE77047000072B6054C24
:1004E0004FF4FA752021204600F008F9284600F064
:1004F00003F8F7E70008014070B5044600F006F97C
:100500000546601C02D004480078044400F0FEF860
:10051000401BA042FAD370BD000000202DE9F84F27
:10052000DFF8B8910024A9F1040B23460F2709F145
:10053000040AABF1040EC9E00125A5402A40AA42F5
:100540007DD1674ED1F804C0ACEB0608B44532D07B
:1005500014DCBCF1030F3AD009DCBCF1000F2AD047
:10056000BCF1010F1CD0BCF1020F31D11DE0BCF178
:10057000110F17D0BCF1120F2AD119E0B8F5881F5E
:1005800019D006DCB8F5803F15D0B8F5801F1FD113
:1005900011E0B8F5001F0ED0B8F5041F18D10AE01D
:1005A000CB6815E0CB681B1D12E0CB6808330FE069
:1005B000CB680C330CE08B682BB1012B4FF0080398
:1005C00003D0456104E0042302E0056100E000235C
:1005D000FF2A01D8064601E000F104064FEA84052F
:1005E00001D9A5F12005D6F8008007FA05FC28EA14
:1005F0000C0803FA05F548EA0508C6F800804D68BE
:10060000ED0062D5374DAE6946F00106AE61AD69C9
:1006100024F0030605F001050095334D06EB050CAB
:10062000DCF80850A607360F07FA06F825EA080591
:10063000DFF8B880404503D14FF0000817E044E0F0
:10064000DFF8AC80404502D14FF001080FE0DFF841
:10065000A480404502D14FF0020808E0DFF89880FE
:10066000404502D14FF0030801E04FF0040808FABA
:1006700006F848EA0508CCF808804D68D9F800600B
:10068000ED024D4601D5164300E096432E604D68BD
:10069000DAF80060AD02554601D5164300E09643F6
:1006A0002E604D68DBF80060AD035D4601D5164352
:1006B00000E096432E604D68DEF80060ED0375465D
:1006C00001D5164300E096432E60641C0D682A464F
:1006D000E5407FF431AFBDE8F88F00000804014029
:1006E000000011100010024000000140000801400D
:1006F000000C01400010014000140140C26821EAD2
:1007000002030A4043EA02410161704701488068E0
:10071000704700000000002070B5040025D094F858
:100720003D00002520B984F83C50204600F04EF9E9
:10073000242084F83D002068016821F00101016057
:100740002068016841F4004101602068016821F4DB
:100750000041016000F08AFA4D4A6168914201D877
:100760004C4900E04C49884201D2012070BD4B4900
:100770002368B0FBF1F15E6826F03F060E435E6031
:100780006368934206D94FF4967359434FF47A73D2
:10079000B1FBF3F12368491C1E6A26F03F06314382
:1007A00019626168914210D84900401EB0FBF1F215
:1007B000521CC2F30B02042A01D2042022E0B0FB37
:1007C000F1F0401CC0F30B001CE0A268F2B301EB97
:1007D000C10303EB0116431EB3FBF6F35B1C43F4AA
:1007E00080431B0549D092B301EBC10202EB01111A
:1007F000401EB0FBF1F0401CC0F30B0040F4804001
:1008000040F400402168CA694CF6FF739A431043D4
:10081000C861D4E9071001432068026822F0C002D1
:1008200011430160D4E9030101432068826848F262
:10083000FF339A4311438160D4E9050108432168DD
:10084000CA6822F0FF021043C86001E00EE016E023
:100850002068016841F0010101602564202084F8CE
:100860003D00256384F83E50002070BD01EB410639
:10087000431EB3FBF6F35B1CB3E70120C2E701EBB9
:100880004101401EB0FBF1F0401CC0F30B00B7E784
:10089000A086010080841E0000093D0040420F0038
:1008A0002DE9F84F1F4690468A460446DDF8289009
:1008B000FFF72CFF054694F83D0020287FD119232F
:1008C000012240492046009500F05CFD002876D1C9
:1008D00094F83C00012872D0012084F83C00206884
:1008E0000168C90703D1016841F001010160206876
:1008F000016821F400610160212084F83D0010208E
:1009000084F83E0000262664C4F824806785608D44
:1009100020852D48E0622B464A465146204600F08D
:10092000B7FC90B9206841698069009036E02A469A
:100930004946204600F0CCFD50B1206C042804D17B
:100940002068016841F4007101600120BDE8F88F62
:10095000606A216800780861606A401C6062618D8D
:10096000491E6185218D491E89B2218522685369FE
:10097000DB435B070BD451B100781061606A401C07
:100980006062608D401E6085208D401E20852A4655
:100990004946204600F0CAFC0028CED1208D002810
:1009A000C5D154F83D0B016841F40071016020206D
:1009B00004F81E09E67766770020C7E7FFE7022004
:1009C000C4E70000020010000000FFFF10B586B071
:1009D0000021009101910291039100681049884221
:1009E0001BD1104CA06940F00800A061A0696946C5
:1009F00000F0080004904FF4406000901220019035
:100A0000032003900848FFF789FDE06940F4800067
:100A1000E061E06900F48000049006B010BD0000C1
:100A20000058004000100240000C0140024881685C
:100A3000027811448160704700000020074810B51B
:100A4000016841F010010160032000F067F80F20F9
:100A500000F006F800F024F8002010BD002002404D
:100A600070B50D4D04464FF47A712878B1FBF0F063
:100A70000A490968B1FBF0F000F0BEFA48B9102C41
:100A800007D200222146501E00F028F800206C609A
:100A900070BD012070BD0000000000200C0000208F
:100AA0000C4808B5816941F001018161816901F05B
:100AB00001010091C16941F08051C161C06900F03C
:100AC000805000900448416821F0E06141F00071DD
:100AD000416008BD0010024000000140F0B40E4B20
:100AE0001B680C46C3F30223C3F10705042D00D98C
:100AF0000425191D072901D2002300E0DB1E012671
:100B000006FA05F1491E214099409E40761E164086
:100B10003143F0BC00F0C6BE0CED00E0064900F029
:100B2000070208684FF6FF03184040EA0220034A14
:100B300010430860704700000CED00E00000FA056B
:100B40002DE9F0470F46050061D0434E306800F0B4
:100B50000700B84209D2306820F0070038433060FF
:100B6000306800F00700B84251D128683B4C81073B
:100B700012D5400703D5606840F4E06060602878D3
:100B8000000703D5606840F4605060606068A96841
:100B900020F0F000084360602878C00728D068681B
:100BA000012810D02168022810D0890700292EDAE8
:100BB000616821F0030101436160FFF7A7FD8046F2
:100BC00041F288390DE021688903EFE78901EDE7FB
:100BD000FFF79CFDA0EB0801494502D90320BDE8C1
:100BE000F0876068696800F00C00B0EB810FEFD10E
:100BF000306800F00700B8420BD9306820F00700D9
:100C000038433060306800F00700B84201D001205E
:100C1000E5E72878400705D56068E96820F4E060DA
:100C2000084360602878000706D56068296920F4C9
:100C3000605040EAC100606000F028F86168084A2E
:100C4000C1F30311515CC8400649086006480068BA
:100C5000FFF706FF0020C2E700200240001002401C
:100C6000F43900080C000020040000200448054965
:100C700000684968044AC1F30221515CC8407047CA
:100C80000C00002000100240043A00080E4A51688F
:100C90000E4801F00C03042B11D0082B0FD10C4887
:100CA000C1F38343C903C05C0AD55168084AC1F344
:100CB0004041921E515C054A5043B0FBF1F0704731
:100CC00004494843704700000010024000127A00B7
:100CD000E439000800093D002DE9F84F040070D008
:100CE0002078C04DC00749D06868C0F38100012852
:100CF00007D06868C0F38100022809D16868C00382
:100D000006D52868800339D560680028E7D035E02B
:100D10006068B0F5803F0BD010B1B0F5A02F11D0B6
:100D2000286820F480302860286820F4802002E0C1
:100D3000286840F480302860606890B1FFF7E6FCD6
:100D400006460AE0286840F480202860F0E700BFEB
:100D5000FFF7DCFC801B642873D828688003F7D574
:100D60000CE0FFF7D3FC064605E000BFFFF7CEFC22
:100D7000801B6428F0D828688003F7D420789A4E26
:100D800080074FF001094FF0000839D5686810F06E
:100D90000C0F07D06868C0F38100022809D1686889
:100DA000C00306D42868800714D52069012808D11B
:100DB00010E02069B0B1C6F80090FFF7A7FC074625
:100DC00005E00AE1FFF7A2FCC01B0228C4D828688E
:100DD0008007F7D52868616920F0F80040EAC10073
:100DE00028600DE0C6F80080FFF790FC074604E09D
:100DF000FFF78CFCC01B022823D828688007F7D493
:100E0000207800072CD57948A169D9B1C0F80090A5
:100E1000FFF77CFC074604E0FFF778FCC01B0228C4
:100E20000FD8686A8007F7D571484FF4FA51006807
:100E3000B0FBF1F0009000BF0098411E0091FAD283
:100E40000EE080E0C0F80080FFF760FC074604E099
:100E5000FFF75CFCC01B022875D8686A8007F7D4CE
:100E60002078400760D5E8690027C00008D4E86909
:100E700040F08050E861E869012700F08050009060
:100E80005C480168C90513D40168834641F4807148
:100E90000160FFF73BFC824606E000BFFFF736FC2F
:100EA000A0EB0A0064284ED8DBF80000C005F5D599
:100EB000E06801280AD008B1052813D0286A20F07C
:100EC00001002862286A20F0040002E0286A40F04D
:100ED00001002862E06841F2883B98B1FFF716FCF8
:100EE00082460BE0286A40F004002862EEE700BF6B
:100EF000FFF70CFCA0EB0A0159455AD8286A800775
:100F0000F6D50CE0FFF702FC824605E0FFF7FEFB9A
:100F1000A0EB0A0159454CD8286A8007F6D41FB1C6
:100F2000E86920F08050E861E06988B36968C1F33E
:100F30008101022944D00228C6F8608004D0FFF75E
:100F4000E5FB044638E034E0FFF7E0FB074604E049
:100F5000FFF7DCFBC01B02282BD828688001F7D4E0
:100F6000206AB0F5803F05D16868A16820F40030A0
:100F700008436860D4E908010843696821F47411E2
:100F800008436860C6F86090FFF7C0FB044606E0BF
:100F900025E000BFFFF7BAFB001B022809D828682C
:100FA0008001F7D51BE000BFFFF7B0FB001B022854
:100FB00002D90320BDE8F88F28688001F4D40EE040
:100FC0000128F7D06868226A00F48031914204D188
:100FD000616A00F47010884201D00120EAE7002025
:100FE000E8E7000000100240000042428004424254
:100FF0000C0000200070004010B5401EB0F1807F52
:1010000001D3012010BD4FF0E02460610F21601773
:1010100000F048FC0020A06107202061002010BDE6
:1010200070B590F83C20012A26D0012480F83C407D
:10103000022280F83D2003685A689D6822F07006FD
:101040000A6832435A600D4B02689A4208D0B2F1E6
:10105000804F05D00A4B9A4202D00A4B9A4204D1E3
:10106000496825F080031943916080F83D400021D4
:1010700080F83C10084670BD022070BD002C014075
:10108000000400400008004010B5040003D094F8AC
:101090003D0010B107E0012010BD002084F83C00A5
:1010A000204600F01FF8022084F83D00211D206832
:1010B00000F0E0FA012084F8460084F83E0084F84D
:1010C0003F0084F8400084F8410084F8420084F82E
:1010D000430084F8440084F8450084F83D00002073
:1010E00010BD000008B500680649884208D10648CE
:1010F000816941F400618161806900F400600090C1
:1011000008BD0000002C01400010024090F83D1086
:10111000012901D001207047022180F83D100068AC
:101120000B49884208D0B0F1804F05D00949884268
:1011300002D00949884204D1816801F007010629DB
:1011400003D0016841F001010160002070470000F8
:10115000002C0140000400400008004001680A6AB9
:1011600041F211131A4207D10A6A9B101A4203D1A5
:101170000A6822F001020A60012180F83D10002077
:10118000704770B5044690F83C000025012817D040
:10119000012684F83C60022084F83D0020688268C3
:1011A00022F0770222F47F4282600868502838D00B
:1011B0000DDC20284FD005DC90B3102811D14AE077
:1011C000022070BD302846D040280AD13BE060287C
:1011D0002FD070280DD0B0F5805F03D0B0F5005F40
:1011E00012D0012584F83D60002084F83C00284698
:1011F00070BDCB68D1E90121206800F077FA206842
:10120000816841F0770109E0CB68D1E901212068CC
:1012100000F06CFA2068816841F480418160E1E768
:1012200019E0CA684968206800F072FA5021206805
:1012300006E0CA684968206800F07BFA60212068EF
:1012400000F05EFACEE7CA684968206800F060FAEC
:1012500040212068F4E7226801461046F0E7FEE7E7
:1012600001684A69D24352050FD46FF480624A6123
:10127000002140F8301F202242738173026942F03E
:1012800004020261017301207047002070470000D2
:10129000F8B50446C06A1E460D461746082807D012
:1012A000012805D010F5803F02D0206B122804D110
:1012B0002068016841F480710160134600224FF0FC
:1012C00001112046009600F05DF840B120680068EA
:1012D000C00502D54FF4007020640320F8BD2069DA
:1012E000B0F5804F0ED00620216800EAD51040F0FE
:1012F000F000086133463A460B49204600F08AF870
:1013000078B902E005F0FE0000E0E8B2216808616B
:10131000054933463A46891F204600F07BF80028ED
:10132000DCD00120F8BD00000800010070B51646B1
:101330000D4604461EE02046FFF792FF08B101204B
:1013400070BD681C16D0FFF7E1F9801BA84200D8D9
:1013500085B920684069C04340070BD5002044F898
:10136000300F20216173A073216941F020012161B8
:101370002073E4E720684069C0434007DBD40020C5
:1013800070BD00002DE9F047984617460D4604460B
:10139000C1F30746DDF820902AE000BFB8F1FF3F17
:1013A00026D0FFF7B3F9A0EB0901414502D8B8F107
:1013B000000F1DD12068012E16D0806925EA00009B
:1013C0000004000C12D00020B84211D1002044F8D3
:1013D000300F20216173A073216941F02001216148
:1013E00020730120BDE8F0874069E7E70120EBE7C3
:1013F0002068012E0AD0806925EA00000004000C54
:1014000006D00020B842C9D00020EBE74069F3E7DE
:101410000120F7E72DE9F047984616460D460446A9
:101420004FF000094FF0200AC1F3074723E020687E
:101430004069C043400515D42068016841F400713B
:10144000016021686FF480604861C4F8309084F8CE
:101450003DA084F83E90216C41F00401216484F8A1
:101460003C9021E0701C06D0FFF750F9A0EB08007B
:10147000B04203D816B1012F1FD021E02068012F00
:1014800015D0806925EA00000004000C18D000BFC8
:1014900044F8309F84F80DA084F80E90216941F043
:1014A0002001216184F80C900120BDE8F08740699B
:1014B00025EA00000004000CEAD12068406901E040
:1014C0002068806925EA00000004000CAFD1ECE739
:1014D00070B516460D4604461EE02046FFF7C0FED6
:1014E00008B1012070BD681C16D0FFF70FF9801BF2
:1014F000A84200D885B920684069C04300060BD5D2
:10150000002044F8300F20216173A073216941F05D
:10151000200121612073E4E720684069C043000690
:10152000DBD4002070BD00000D4808B5816941F092
:1015300020018161816901F020010091816941F000
:1015400008018161816901F008010091816941F020
:1015500004018161806900F00400009008BD000072
:10156000001002400D4810B50B4901600C49416064
:1015700000214FF480428160C0E903124161816122
:10158000C1610162FFF7C8F8002803D0BDE8104030
:10159000FEF7A4BF10BD0000005800401800002056
:1015A000A086010010B586B000241748009401946D
:1015B0000294039404941349059401604721C0E9FF
:1015C00001144FF6FF71C0E9031444618461FFF711
:1015D0005BFD08B1FEF782FF4FF480500090694632
:1015E0000948FFF7CEFD08B1FEF778FF049404A97F
:1015F00005480594FFF714FD002801D0FEF76EFFA3
:1016000006B010BD002C01406C000020FEE7FEE794
:1016100070477047FFF70ABA30B58FB02821684687
:10162000FEF7A9FD14210AA8FEF7A5FD0121080473
:10163000CDE900100024029402250491CDE9075061
:101640004FF4E01009906846FFF746FB60B90F20A1
:10165000CDE90A056802CDE90C4002210AA80E94E2
:10166000FFF76EFA002801D0FEF738FF0FB030BD4B
:1016700070470000F0B50268194B1A4C1A4D4FF034
:101680008047984205D0B84203D0A04201D0A8427A
:1016900003D122F070064A683243984205D0B8421E
:1016A00003D0A04201D0A84203D122F44074CA68FA
:1016B00022434C6922F08002224302608A68C2629F
:1016C0000A688262984201D109690163012141617E
:1016D0000169C90703D0016921F001010161F0BD71
:1016E000002C0140000400400008004010B5846850
:1016F00042EA032224F47F440A432243826010BD5D
:10170000826822F070020A4342F00701816070474C
:1017100010B5036A046A24F001040462846924F0A9
:10172000F00444EA021423F00A020A4384610262CC
:1017300010BD10B5036A046A24F0100404628469C1
:1017400023F0A00324F4704444EA023243EA011176
:101750008261016210BD000010B504460748FFF722
:10176000D5FC06480021026851620068416AA14226
:10177000FCD3BDE810400148FFF7F0BC6C0000202E
:101780002DE9FF5F1B4800258B46802400EB4319A1
:1017900009EB450019F8158090F801A00298002681
:1017A00010EB050724FA06F010EA080F05D03A46B8
:1017B0000BEB0601009800F005FF761CF6B2082E30
:1017C000F0D300264FEA040828FA06F010EA0A0FC0
:1017D00006D00BEB06013A460831009800F0F2FE05
:1017E000761CF6B2082EEFD36D1CEDB2102DCFD3C0
:1017F000BDE8FF9F0C3A00082DE9FF4F81B08B46F2
:10180000994692460021019801F078F84020002284
:10181000009080231146019800F0FFFC0026354619
:101820004FF080080024600703D119F80670761C79
:10183000B6B204F0070128FA01F0384212D0022DA6
:1018400010D96E2D0ED2022C0CD93D2C0AD20121BA
:10185000019801F053F80AEB04020BEB0501019823
:1018600000F0B0FE641CE4B2402CDCD36D1CEDB281
:10187000302DD7D305B0BDE8F08FFEE70FB4084B8D
:1018800010B504A902AA039800F02CF8044602A996
:10189000002000F0D1F8204610BC5DF814FB0000D9
:1018A000391A00080907090E002804DB00F1E020BE
:1018B00080F80014704700F00F0000F1E02080F87D
:1018C000141D704702E008C8121F08C1002AFAD18F
:1018D00070477047002001E001C1121F002AFBD1B0
:1018E000704700002DE9FF4F89B09B460446002554
:1018F00006E025280BD05A460B999047641C6D1CB6
:1019000020780028F5D10DB02846BDE8F08F0027DB
:10191000B8460122474900E0074314F8013F203B45
:1019200002FA03F00842F7D120782E2819D114F8D2
:10193000010F47F004072A280ED06FF02F022078FD
:10194000A0F1300109290CD808EB880102EB410114
:1019500000EB0108641CF2E70A98641C50F8048B41
:101960000A9020780028CED0642808D0692806D0B4
:1019700075281ED05A460B9990476D1C58E00A995D
:101980004FF00A0901C90A91002802DA40422D21CC
:1019900002E0390504D52B218DF82010012103E048
:1019A000F90704D02021F7E78A4608AE0DE00021B0
:1019B000FAE70A994FF00A0901C90A91F7E749467F
:1019C000FEF7F5FC303106F8011D0028F7D1ADEB2C
:1019D000060000F12009780701D44FF00108C8453E
:1019E00002DDA8EB090000E000208046002706E0A9
:1019F00008A85A46C05D0B9990476D1C7F1C57453F
:101A0000F6DB04E030205A460B9990476D1CB8F184
:101A10000001A8F10108F5DC05E016F8010B5A46B3
:101A20000B9990476D1CB9F10001A9F10109F4DC93
:101A3000641C65E7092801000A68531C0B601070DC
:101A40007047000010B5044600F0DEFB012120467F
:101A500000F06FFF0021204600F068FF2B49204670
:101A600000F054FF2AA314220021204600F0B6FE05
:101A70000121204600F05AFF2649204600F046FF8B
:101A800025A308221521204600F0A8FE00212046AB
:101A900000F04CFF1D49204600F038FF1FA31E2216
:101AA0003321204600F09AFE1DA31E22432120462A
:101AB00000F094FE2F2323220221204600F0CFFCC9
:101AC0002F2324220321204600F0C9FC0C232022CE
:101AD0002D21204600F08AFE0C2321222E212046B3
:101AE00000F084FE0F49204600F010FF0EA33622BE
:101AF0000121204600F072FE204600F0E8FEBDE81D
:101B000010404FF47A70FEF7F7BC0000A27700088F
:101B100055000000179A0008380000006700000018
:101B2000B2000000E24800086769746875622E63BD
:101B30006F6D2F6F6C696B726175732F75386732BB
:101B400000000000A6B0FEF779FFFFF765FDFFF784
:101B5000EBFCFFF707FDFFF725FD684600F03AFBB9
:101B60004FF4FA74684600F06DFE6846FFF76AFFAE
:101B7000684600F0F9FA684600F08AFE0028F4D1C1
:101B80002046FEF7B9FCEDE72DE9FC4107464FF48E
:101B9000487600F039FB2DA30E220021384600F0D4
:101BA0001DFE384600F093FE3046FEF7A5FC0820E7
:101BB0001624CDE900401B2310220021384600F0F6
:101BC000B0FB384600F083FE3046FEF795FC04205B
:101BD000CDE900403F251B2310222946384600F05E
:101BE000A0FB384600F073FE3046FEF785FC01206E
:101BF000CDE900401B232A460021384600F091FB26
:101C0000384600F064FE3046FEF776FC0220CDE94F
:101C100000402A461B231146384600F082FB384616
:101C200000F055FE3046FEF767FC0F20CDE900407E
:101C300028221B236021384600F073FB384600F051
:101C400046FE3046BDE8FC41FEF756BC4472617763
:101C500046696C6C6564456C6C6970736500000066
:101C600070B505464FF4FA6400F0CEFA14492846E0
:101C700000F04CFE13A30F220A21284600F0AEFD0F
:101C800012A32D220A21284600F0A8FD00231422C9
:101C900032212846FFF774FD0123142242212846F1
:101CA000FFF76EFD0223142252212846FFF768FD3C
:101CB000284600F00CFE2046BDE87040FEF71CBC34
:101CC000B54B00084E616D653A00000049443A3159
:101CD0003233343536373839313233002DE9FC4769
:101CE000824600F091FA00250024AAB2A1B2504623
:101CF00000F068FC504600F0EAFD1034802CF4DB64
:101D00001035402DF0DB504600F07EFA1E274026AD
:101D100080254FF6FF74784206EB400189B205EB4F
:101D2000800083B20091BAB204EA4701504600F045
:101D300074FA504600F0CBFDBF1E002FEBDC50467E
:101D400000F062FA0027784206EB400189B205EB09
:101D5000800083B20091BAB204EA4701504600F015
:101D600002FB504600F0B3FDBF1C202FEBDB5046BA
:101D700000F04AFA1E274FF0030800BF97FBF8F067
:101D80007942C0F10A0006EB410280B292B2CDE97D
:101D9000002005EB810083B2BAB204EA4701504645
:101DA00000F027FC504600F092FDBF1E002FE5DC3E
:101DB000504600F029FAB1460027464697FBF6F058
:101DC0007942C0F10A0009EB410280B292B2CDE93A
:101DD000002005EB810083B2BAB204EA4701504605
:101DE00000F07AFC504600F072FDBF1C202FE5DBAE
:101DF000504600F009FA02260F25B3B220224021F6
:101E00005046009500F04BFA504600F060FDF61C7D
:101E1000402EF2DB504600F0F7F94026B3B2202204
:101E200040215046009500F01AFA504600F04FFD50
:101E3000F61E002EF2DC504600F0E6F90226B0B2A3
:101E4000CDE9000504EA460320224021504600F077
:101E500068FA504600F03BFDF61C202EEFDB5046A2
:101E600000F0D2F92026B0B2CDE9000504EA46031D
:101E700020224021504600F032FA504600F027FD63
:101E8000F61E002EEFDCBDE8FC8700002DE9F043D4
:101E90000A24264FDFF8988087B08146264604251D
:101EA000484600F0B1F92046FEF751FA00223B46C1
:101EB000FEF7DEF900224346FEF768F9FEF758FA0E
:101EC00002461CA102A8FFF7D9FC1C49484600F0B5
:101ED0001DFD1BA320221021484600F07FFC1B495A
:101EE000484600F013FD02AB31226421484600F061
:101EF00075FCCDE90065A3B228221021484600F008
:101F000078FBCDE90065502328221021484600F0D7
:101F1000E3FB484600F0DBFCA41C502CC0DD07B0FE
:101F20004FF4FA70BDE8F043FEF7E6BA0000544003
:101F30000000594025642525000000008B6800083A
:101F400053544D333220553867320000B54B0008EA
:101F50007CB506464FF47A7500F056F917A30E22A9
:101F60000021304600F03AFC16483024CDE900400C
:101F7000802310220021304600F03EFC304600F065
:101F8000A6FC2846FEF7B8FA304600F03DF90EA34D
:101F90000E220021304600F021FC0E488023CDE9BE
:101FA000004010220021304600F026FC304600F0B0
:101FB0008EFC2846BDE87C40FEF79EBA44726177ED
:101FC00058424D006C3A000862696C6962696C693C
:101FD000000000006C3D00087FB51DA305460FCB37
:101FE0008DE80F004FF47A74284600F00DF91C4973
:101FF000284600F08BFC6B4605220021284600F0A5
:10200000EDFB284600F063FC2046FEF775FA154903
:10201000284600F07BFC6B461E220021284600F07B
:10202000DDFB284600F053FC2046FEF765FA0E491A
:10203000284600F06BFC6B463C220021284600F04D
:10204000CDFB284600F043FC2046FEF755FA7FBD45
:1020500053544D3332463130334338543600000048
:10206000EC410008B54B000874620008F0B585B07B
:102070000C4607461E25142235A16846FEF762F875
:102080004FF47A76012C32D0022C2ED140243846DF
:1020900000F0BAF83349384600F038FCA2B26B467B
:1020A0000021384600F09AFB384600F010FC284624
:1020B000FEF722FAA41E202CE9DA3046FEF71CFABD
:1020C00020246FF01306384600F09EF8A2B26B464B
:1020D0000021384600F082FB384600F0F8FB284625
:1020E000FEF70AFAA41EB442EDDA05B0F0BD802472
:1020F000384600F089F81B49384600F007FCA1B2C9
:102100006B462022384600F069FB384600F0DFFBC2
:102110002846FEF7F1F9A41E142CE9DA3046FEF742
:10212000EBF914246FF07F06384600F06DF8A1B289
:102130006B462022384600F051FB384600F0C7FBC2
:102140002846FEF7D9F9A41EB442EDDACDE7000027
:102150005538673220536C69646520546573742167
:10216000000000005655000810B50446FFF78EFE2B
:102170002046FFF7B3FD2046FFF72EFF2046FFF76E
:10218000E7FE2046FFF76CFD01212046FFF76EFFBA
:1021900002212046FFF76AFF2046FFF7F5FC2046A4
:1021A00000F032F80949204600F0B0FB084B052248
:1021B00020212046FFF720FB204600F088FBBDE8E9
:1021C000104041F28830FEF797B90000B54B000887
:1021D0006C40000810B50446084B094A094900F054
:1021E000E3FB204601F09BF90021204601F0A7F90E
:1021F0002046BDE8104000F007B80000393900085B
:10220000E1350008409D000801680A7C90F838100C
:10221000406B5143C900FDF7AEBF2DE9F84381463D
:10222000089C1E46101980B20090881983B215468A
:102230008846484600F014FB00280ED00027002CEA
:102240000BD033462A4641464846009700F00EF927
:102250006D1C641EADB2A4B2F1E7BDE8F8832DE9B0
:10226000F8431C4680461019401C80B200900819A3
:10227000401C83B21546101B82B20E46081B81B269
:10228000089F404600F0ECFA002806D023462A4674
:1022900031464046009700F03DFCBDE8F8832DE94B
:1022A000F8431C4680461019401C80B20090081963
:1022B000401C83B21546101B82B20E46081B81B229
:1022C000089F404600F0CCFA002806D023462A4654
:1022D00031464046009700F0AFFCBDE8F8832DE999
:1022E000FC478146DDE90A481019401C80B21D46B2
:1022F00000904819401C83B21646101B82B20F464C
:10230000481B81B2484600F0ABFA002807D0CDE95F
:1023100000482B4632463946484600F028FDBDE8C5
:10232000FC872DE9FC478146DDE90A481019401C6D
:1023300080B21D4600904819401C83B21646101BFF
:1023400082B20F46481B81B2484600F089FA002845
:1023500007D0CDE900482B4632463946484600F0C2
:10236000A4FDBDE8FC872DE9F84F83460A9E9A46F6
:10237000901980B201EB0A04009015460F46A3B2F3
:10238000584600F06DFA00282FD04FF00009534650
:102390002A4639465846CDF8009000F067F8022EDC
:1023A00023D3B61E360405F10105360CADB214D0A8
:1023B0004FF0010833462A4639465846CDF800808A
:1023C00000F054F8641EA1B233462A465846CDF8B0
:1023D000008000F04BF8A81985B253462A463946CA
:1023E0005846CDF8009000F041F8BDE8F88F2DE98F
:1023F000F041044690F870001F4615460E4630B175
:10240000012809D002280CD0032815D10FE0E16D76
:1024100020468847284408E0E16D20468847301A66
:1024200009E0E16D20468847281A85B204E0E16D95
:1024300020468847304486B22846A4F86460A4F851
:10244000660039460025204600F012FF010003D047
:10245000204600F03DFE85B22846BDE8F08138B543
:102460000024009400F002F838BD00003FB581B0B0
:10247000044690F88C00089900283AD0BDF8100066
:10248000002836D0012811D9022902D0032907D00B
:102490000CE0BDF80820101A401CADF8080005E05B
:1024A000BDF80C20101A401CADF80C0011F001050D
:1024B00021D0B4F84810BDF80800814219D8B4F80A
:1024C0004A10814215D9B4F84E30B4F84C2004A912
:1024D0000DF10C0000F000FB00280AD00095206BE5
:1024E000BDF81030BDF80C208568BDF808102046F6
:1024F000A84705B030BDB4F84C10BDF80C008142BF
:10250000F7D8B4F84E108142F3D9B4F84A30B4F891
:10251000482004A902A8DDE72DE9FF4F81B090F81B
:102520009270DDF838801D460E4681468FB100203E
:1025300082460398039A401C80B20090701983B2BF
:10254000484600F08DF9002839D001244FF0000BE7
:1025500031E00120ECE700BF98F8000020400023A4
:102560000CE05B1C761C61009BB2B6B211F0FF045C
:1025700002D1012408F101086D1EADB255B198F8E1
:10258000001001EA040110B10029EAD103E000299A
:10259000E7D003E010B189F8927004E099F8910057
:1025A00048B989F892A0F01A81B2CDF800B0484637
:1025B000039AFFF75BFF002DCED189F8927005B02A
:1025C000BDE8F08F08B5B0F84C30934210D8B0F8A1
:1025D0004E3093420CD9B0F848308B4208D8B0F84E
:1025E0004A308B4204D9002300930123FFF73EFFBA
:1025F00008BD2DE9FF4F83B01F46DDE910A402EBB3
:102600000A06B0B2CD19009090468946ABB2039845
:1026100000F026F900285CD009EB04001FFA80FBCB
:1026200008EB040081B2281B401E85B2301B401EFF
:1026300080B2CDE9010102200A46009023465946A6
:102640000398FFF72CFE01200090DDE902202346CD
:102650002946FFF724FE0420009023465946019A9C
:102660000398FFF71CFE0820009023462946019A94
:102670000398FFF714FE0BF101011FFA81FB029989
:10268000381B491C001B80B289B20291032811D368
:10269000801E86B2601C85B233464246594600957C
:1026A0000398FFF7BAFD334600955946019A0398FF
:1026B000FFF7B3FDAAEB0400001B80B2032808D388
:1026C000801E80B20090DDE902203B464946FFF7BC
:1026D000A4FD07B0BDE8F08F2DE9FF4F83B01C4685
:1026E000DDE9106502EB060A1FFA8AF001EB040926
:1026F0000090174688461FFA89F3039800F0B0F857
:10270000002867D008EB05001FFA80FB781981B21A
:10271000A9EB0500401E80B2CDE90110AAEB05002F
:10272000401E1FFA80F902200A4600902B465946A7
:102730000398FFF794FD01200090DDE902102B467D
:10274000019AFFF78CFD042000902B464A4659461B
:102750000398FFF784FD08200090DDE902102B4666
:102760004A46FFF77CFD601B711B401B491B8DB265
:102770000BF101011FFA81FA019980B2491C1FFA7D
:1027800081FB032810D3801E80B2814603463A465F
:102790005146761E0398FFF762FEB81982B24B4687
:1027A00051460398FFF75BFE032D13D3AD1EADB268
:1027B0002B465A464146641E039800F017F808EB72
:1027C000040081B2039807B02B465A46BDE8F04F8B
:1027D00000F00CB807B0BDE8F08F000030B4024C38
:1027E000446030BC00F013BCA535000838B50124A6
:1027F0000094FFF73BFE38BD2DE9F84F8246DDE936
:102800000A57D81DC0F3CC08501980B21C4600905E
:10281000081983B216468946504600F021F8002870
:102820000ED00BE023463246494650460097FFF74C
:1028300073FE761C6D1E4744B6B2ADB2002DF1D1C9
:10284000BDE8F88F10B5044690F8930010B120460B
:10285000FFF7DAFC2046BDE81040002100F040B848
:1028600070B50D461E460446B0F84E10B0F84C0048
:10287000049B00F05AFD002809D0B4F84A10B4F8BF
:10288000480033462A46BDE8704000F04EBD70BD9A
:1028900070B5044600F0D7FD94F8390094F838106C
:1028A0000844C5B22068407CA84204D8204600F005
:1028B0003EFE002070BD94F8930010B12046FFF753
:1028C000A3FC2946204600F00BF8012070BD10B58E
:1028D000044600F0B8FD2046BDE8104000F027BED9
:1028E00010B5044680F83910006B0168204688470F
:1028F000206B41682046BDE81040084780F89210E0
:10290000032902D3012180F89210704710B50446C4
:10291000806D884209D004F17400A16500F05EFD6D
:102920002046BDE8104000F05BB810BD80F8701084
:10293000704780F86D1070470149C165704700000D
:10294000853000080021A0F85010A0F854104FF670
:10295000FF71A0F85210A0F85610016B49680847A3
:1029600070B5044600250498A565E362616384F8A8
:10297000382084F8395084F86D5084F8915084F8E8
:102980008D50012184F8921084F89310206301681F
:10299000204688472046FFF7D5FF2046FFF7CCFFAB
:1029A00084F8705070BD00007CB50C46009313464F
:1029B0000546084A084900F0CAFD01A800F008FDD4
:1029C0000146064B00949DF804202846FFF7C8FFF7
:1029D0007CBD000009370008313800084333000887
:1029E00010B5816D00291AD090F9813080F88E30B1
:1029F00090F9822080F88F2090F88D1000290ED059
:102A000001290DD090F97E4090F980100C449C4231
:102A100001DD80F88E408A4201DD80F88F1010BD04
:102A200090F983108B4201DA80F88E1090F98410AF
:102A3000F1E72BB1012B05D0022B06D0104402E0A8
:102A4000084400E0801A80B27047401AFBE72BB1BF
:102A5000012B05D0022B06D0401A02E0104400E002
:102A6000084480B27047801AFBE738B50446B0F8D6
:102A700056000090B4F85230B4F85420B4F8501016
:102A80002046FFF7EDFE18B3012084F88C00B4F85F
:102A90004810B4F85000814201D2A4F84800B4F8BC
:102AA0004A10B4F85200814201D9A4F84A00B4F89F
:102AB0004C10B4F85400814201D2A4F84C00B4F890
:102AC0004E10B4F85600814201D9A4F84E0038BD2A
:102AD000002084F88C0038BD30B504880D8825446A
:102AE000ADB2AC4205D99C4202D25D1EADB200E04F
:102AF00014469C4201D2954201D8002030BD944238
:102B000000D214469D4200D91D460480281B08802F
:102B1000012030BD2DE9FF4FC3F1010083B006B2A3
:102B200058429146DDF840A040008B4601271C46E4
:102B3000CDE9009A00250FFA80F85B462246294627
:102B400015E0002E08DB08F102000FFA80F8641E81
:102B500006EB0800A4B206B26D1CBF1C3FB2CDE963
:102B6000009AADB2F01906B25B4622462946039898
:102B700000F005F8A542E4D307B0BDE8F08F2DE9D9
:102B8000FF4F83B00E46DDE9108703EB060002908D
:102B90001546A8EB0600019003EB05001C46F9075B
:102BA000A8EB050B00900DD002981FFA8BF281B2B2
:102BB0000398FFF707FD019882B2009881B203984D
:102BC000FFF700FDB907A4EB060AA4EB05090DD534
:102BD0001FFA8BF21FFA8AF10398FFF7F3FC0198B2
:102BE0001FFA89F182B20398FFF7ECFC08EB0504A9
:102BF000390708EB06050BD50298A2B281B20398FB
:102C0000FFF7E0FC0098AAB281B20398FFF7DAFC64
:102C100078070ED5A2B21FFA8AF10398FFF7D2FC0B
:102C2000039807B0AAB21FFA89F1BDE8F04FFFF789
:102C3000C9BC07B0BDE8F08F2DE9FF4FC3F101001B
:102C400083B006B258429146DDF840A040008B4662
:102C500001271C46CDE9009A00250FFA80F85B4653
:102C60002246294615E0002E08DB08F102000FFA83
:102C700080F8641E06EB0800A4B206B26D1CBF1CEF
:102C80003FB2CDE9009AADB2F01906B25B462246DA
:102C90002946039800F005F8A542E4D307B0BDE843
:102CA000F08F2DE9FF4F83B0164610980F46A0EB2A
:102CB000060B03EB070001901098DDF84490A0EBA1
:102CC000070098465FEAC97103EB060A02F10105A5
:102CD00007F1010400900FD00198ABB281B21FFA46
:102CE0008BF20398FFF782FD0098A3B282B21FFA1D
:102CF0008AF10398FFF77AFD5FEA8971A8EB07076D
:102D0000A8EB06060DD5ABB21FFA8BF2B9B2039849
:102D1000FFF76CFD0098A3B282B2B1B20398FFF73F
:102D200065FD5FEA09700DD50198ABB281B2109ACA
:102D30000398FFF75BFDA3B21FFA8AF1109A03987C
:102D4000FFF754FD5FEA49700ED5ABB2B9B2109AE5
:102D50000398FFF74BFD109A039807B0A3B2B1B2E6
:102D6000BDE8F04FFFF742BD07B0BDE8F08F2DE999
:102D7000FF4F87B01C46149D03FB04F105FB05F0D3
:102D8000470004900020CDE90230C3F101004E005D
:102D9000001B68434FF0000800FB05F907FB04FB2C
:102DA000C24605911EE015990998CDE90001DDE9BB
:102DB0000703DDE9021200F048F803980599401C6A
:102DC00080B2039088198844059009EB4800B2440A
:102DD000002807DD0298C844401E80B2ABEB070B09
:102DE000B9440290D345DEDA00200290C5F101001B
:102DF000401B604300FB04F8AB460024A14606FBE1
:102E00000BF5DDF810A01BE015990998CDE900013C
:102E1000DDE907035A46029900F017F80298544476
:102E2000401C80B2029008EB4400B944BA44002828
:102E300006DDABF1010044441FFA80FBAD1BB0443A
:102E4000A945E1DD0BB0BDE8F08F2DE9F05F9146BB
:102E5000DDE90AA488461E468346E207AAEB090577
:102E600003EB080704D0AAB2B9B25846FFF7AAFB91
:102E7000A107A6EB080604D5AAB2B1B25846FFF7DF
:102E8000A1FB22070AEB090504D5AAB2B9B258463C
:102E9000FFF798FB600706D5AAB2B1B25846BDE865
:102EA000F05FFFF78FBBBDE8F09F2DE9FF4F87B0C4
:102EB0001C46149D03FB04F105FB05F0470004903C
:102EC0000020CDE90230C3F101004E00001B684331
:102ED0004FF0000800FB05F907FB04FBC246059113
:102EE0001EE015990998CDE90001DDE90703DDE948
:102EF000021200F048F803980599401C80B2039034
:102F000088198844059009EB4800B244002807DD81
:102F10000298C844401E80B2ABEB070BB944029044
:102F2000D345DEDA00200290C5F10100401B60436A
:102F300000FB04F8AB460024A14606FB0BF5DDF8C8
:102F400010A01BE015990998CDE90001DDE9070300
:102F50005A46029900F017F802985444401C80B277
:102F6000029008EB4400B944BA44002806DDABF1F6
:102F7000010044441FFA80FBAD1BB044A945E1DDCC
:102F80000BB0BDE8F08F2DE9F05F8946DDE90AA5B9
:102F90001F468346E907AAEB020803EB090602F184
:102FA000010406D0A3B21FFA88F2B1B25846FFF767
:102FB0001DFCA907A7EB090706D5A3B21FFA88F2E3
:102FC000B9B25846FFF712FC280705D5A3B2B1B233
:102FD00052465846FFF70AFC680707D5A3B2B9B2B4
:102FE00052465846BDE8F05FFFF700BCBDE8F09FD1
:102FF00038B5C58F049C0094521BC46A92B2A04796
:1030000038BD38B5049C0094FFF7F2FF38BD2DE9B8
:10301000F0471C4691468846064600F0DEFC002537
:103020004FF6FF7772682178304690470346B842E2
:1030300025D0641CA3F57F40FE38F3D04A464146B4
:103040003046FFF7D4F996F8701031B1012907D056
:10305000022908D003290FD10AE008EB000104E09F
:1030600009EB000106E0A8EB00011FFA81F803E07C
:10307000A9EB00011FFA81F9284485B2D2E728465E
:10308000BDE8F0870020704710B50C4600F006F848
:103090000122641EA240801A40B210BD30B50568FE
:1030A000047B2A78E2406318DBB2082B09D36D1C3D
:1030B00005602D78C4F10804A5401543083BEAB229
:1030C000DBB201248C40641E14400373204630BDE3
:1030D0002DE9F843054600F1600400F00CF915F9FC
:1030E0006B6F2046E97BFFF7CFFF8146297C2046A6
:1030F000FFF7CAFF0746697C20466B3DFFF7C4FF18
:10310000804694F90A00002857DDF019404247B282
:10311000237CA0883A464946FFF78BFCA080237C9D
:103120003A46E0884946FFF792FCE080A188277C78
:1031300002460B4637B1012F0AD0022F40D0032F91
:103140000FD146E094F90A7030443B449BB207E04B
:10315000891B491C94F90A705B1C89B29BB23844E4
:1031600080B200902846FFF77BFB30B3002020722E
:1031700084F8090095F876102046FFF78FFF814606
:1031800095F877102046FFF789FF07460022494649
:10319000284600F027F801223946284600F022F898
:1031A00001212046FFF77AFF0028EFD194F90900AA
:1031B000B042DFDBA07B85F892004046BDE8F88393
:1031C00094F90A705B1CC91B491C89B29BB2921B03
:1031D00004E094F90A7033449BB2D21B521C92B2A1
:1031E000401CBDE72DE9F74F84B00D46049C94F8D0
:1031F000687094F869806034A07AC01BC6B20196EA
:10320000B54200D201954FFA88F279B2A088B4F89D
:1032100006B0237C92468946FFF70BFC0290237C84
:10322000524649465846FFF712FC0246069808B136
:10323000A17B02E0607B50B9E17B049880F892109A
:10324000207C0090DDE901310498FFF70FF9B542C9
:1032500007D3A81BC5B208F10100002700F0FF0842
:10326000CAE77819207284F8098007B0BDE8F08FAA
:1032700070B50D460146806D1730FF2D10D8612DB9
:1032800002D3B1F8881003E0412D02D3B1F88610C3
:103290000844417819B30278AA42F9D1801C70BD64
:1032A000B1F88A100C1826460021304600F019F8B3
:1032B00004440221304600F014F8361DA842F3D32E
:1032C0004FF6FF72207802EA00216078084306D0AA
:1032D000A84201D1E01C70BDA0780444F2E70020B0
:1032E00070BD08444FF6FF720178407802EA012170
:1032F000084480B2704730B5054600F160040166AD
:103300000020207315F8781F2046FFF7C7FEA07233
:1033100069782046FFF7C2FEE072A87EA07310B164
:103320000020E07330BD0120FBE78A4205D28342D2
:1033300001D89A4203D9012070478342F9D800206E
:103340007047F0B502F007060124B440002590F85C
:1033500092E0E7B2DDF814C02C46BEF1010F01D8AF
:103360003D4600D03C46076822F00702BCF1000F42
:103370003F7C07FB02F7BAB2476B3A44114409D1CC
:1033800008785B1E284360401B0401F8010B1B0CEE
:10339000F6D1F0BD0A78761C2A436240A3F10103FE
:1033A0000A7016F007069BB206D06A06150E620672
:1033B000140E002BEED1F0BD428F114490F89220F4
:1033C000012A02D84FF00105F3D04FF00104F0E7D5
:1033D00008210170004870473401002070B505468F
:1033E00008782870487868708878A870C878E8707D
:1033F000087928714879687188790C46A871E07954
:10340000E871207A2872607A6872A07AA872E07AED
:10341000E872207B2873607B6873A07BA873E07BD5
:10342000E873207C287411212046FFF75AFF688238
:1034300013212046FFF755FFA88215212046FFF7EC
:1034400050FFE88270BD2DE9F843064690F83870C9
:1034500090F83950006800244FF6FF7890F81190EA
:10346000316830462A460B7C716B04FB03FC1FFA63
:103470008CFC08EACC0C61440091002100F040F87B
:10348000641C6D1CE4B2EDB2BC4201D24D45E7D3E1
:10349000BDE8F883F0B590F838204FF6FF75036863
:1034A00005EAC2018187197C05EAC101418790F8CC
:1034B000394005EAC401C1875E7CA718B74201D92B
:1034C000321B92B205EAC20220F8401F114441802B
:1034D000998A8180D98AC180F0BDFFF7DBBF0021C6
:1034E000A0F84810B0F84410A0F84A10B0F8401006
:1034F000A0F84C10B0F84210A0F84E10FFF7B5BA83
:103500001CB58DF805108DF80620049C8DF804304C
:103510000094012284686B460F21A0471CBD30B483
:1035200084680023A44630BC1A460A21604730B4A0
:1035300084680023A44630BC1A461021604730B48A
:1035400084680023A4460A4630BC0B2160472DE95D
:10355000F04115460E460446069F00F009F86761E3
:10356000A660C4E903532046BDE8F04100F012B85C
:10357000002140F8081B064A026042608260C26077
:10358000C17681770161FF21017780F820107047B3
:103590003539000830B484680023A44630BC1A468C
:1035A00009216047080001D00A2801D14FF6FF70B9
:1035B000704730B404690023A44630BC1A46192170
:1035C000604713B50122046901AB1721A0471CBD58
:1035D00030B404690023A44630BC1A461821604761
:1035E00038B5184818290DD004DC142907D017293C
:1035F00023D10AE0192916D020291ED11FE0FDF79A
:10360000B1FF1CE00021017019E00F4C08E000BF81
:10361000017813F8015B6554491C521E0170D2B247
:10362000002AF5D10BE04FF47A7100910378064A35
:1036300078210648FDF734F908B1002038BD012093
:1036400038BD000010000020B40000201800002049
:1036500030B4C4680023A44630BC1A461921604720
:1036600030B4C4680023A4460A4630BC1621604723
:1036700030B4C4680023A4460A4630BC1521604714
:1036800030B4C4681346A4460A4630BC17216047CC
:10369000F8B50C464FEA000514F8011B182924D090
:1036A0000EDC152919D0162917D0172923D1207817
:1036B0008DF800006A4601212846FFF7E1FF0AE085
:1036C000192912D0FE2916D122788DF8002029213F
:1036D000284600F066F9641CDEE722788DF80020A9
:1036E000EE6800232846B047F5E70023EE681A4647
:1036F0002846B047D0E7F8BD30B4C4680023A446DC
:1037000030BC1A46182160472DE9F041DFF8B0803F
:1037100014460646A1F11402002798F800001D4641
:10372000062A4AD2DFE802F02F03161B3E4310B1EF
:103730003046FFF73EFF3046FFF74AFF0021304694
:10374000FFF73FFF21463046FFF73BFF012088F897
:10375000000029E021463046FFF733FF24E050B156
:103760003046FFF726FF06E01821304600F01FF92B
:10377000183CE4B21835182C2A46F5D821463046B4
:1037800000F015F90EE096F82400FF2802D1782009
:1037900086F8240037692B4622463046BC46BDE8F1
:1037A000F041604788F800700120BDE8F0810028F2
:1037B000F8D03046FFF7FDFEF4E70020F5E7000003
:1037C0001100002070B50023456904461A462821DF
:1037D000A8470023E5681A4614212046A84701227D
:1037E0004B21204600F0DDF820682921027920468F
:1037F00000F0D7F800224B21204600F0D2F82068D4
:1038000029210279204600F0CCF801224B212046E4
:1038100000F0C7F82068292142792046BDE87040B1
:1038200000F0BFB80160897C80F82210704700006A
:1038300070B50C46054600F019F888B9092C0BD074
:103840000A2C01D0002070BD2846FFF7BBFF0549B8
:103850002846FFF71DFF03E003492846FFF7E2FF74
:10386000012070BD729D0008749E00082DE9F04192
:103870001E46144605460B2908D00D290ED00E29E8
:103880001ED00F2927D00020BDE8F0811AB12849A9
:10389000FFF7FEFE4AE02649491FF9E74AB12449ED
:1038A0000C31FFF7F5FE286890F8130085F8220028
:1038B0003CE01F49491DFFF7EBFE2868807CF5E7D7
:1038C000FFF71AFF81212846FFF7D2FE214628463E
:1038D000FFF7C6FE27E0FFF70FFF707995F822107B
:1038E00001EBC000C7B240212846FFF7C1FE1020FF
:1038F00040EA17112846FFF7BBFE07F00F012846E4
:10390000FFF7AEFEB07940F0B0012846FFF7A8FE01
:1039100030793268C006010E2846FFF7B1FE641EFA
:1039200014F0FF04F4D12846FFF792FE0120ABE724
:10393000519D00080020704710B54D2919D00CDCAE
:103940002B2918D004DC292920D02A290ED114E0F3
:103950002D291FD04C2909D10BE0002250291DD060
:1039600051291BD0522919D0532917D0012180F891
:103970002710012010BD00BFFBE700204FF4A0710D
:1039800000BF401C80B28842FAD3F2E70120FCF766
:10399000B3FDEEE70520FDF7DFFEEAE780F827201C
:1039A000E7E730B444690023A44630BC60472DE902
:1039B000F04115460E460446FFF70AFE4021204618
:1039C000FFF7FFFD27692B46324617212046B847EF
:1039D0002046BDE8F041FFF7ECBD002180F826103D
:1039E0007047010202030405060708090A0B0C0DC3
:1039F0000E0F101000000000000000000102030480
:103A000006070809000000000102030408000BFC7F
:103A1000084010401040304033F85088908810889B
:103A2000108811081108110817FE100000001FF07F
:103A3000101010101210111011101010FFFE1010A5
:103A4000101010102010201040508020100011FC89
:103A500011041104FD0425FC250025402544494896
:103A60002970114029424642823E040000000000B5
:103A70000000000000000000000000000000000046
:103A80000000000000000000000000000000000036
:103A90000000000000000000000000000000000026
:103AA0000000000000000000000000000000000016
:103AB0000000000000000000000000000000030003
:103AC0000700000000000000000000000000078068
:103AD00007000000000000000000000000000FC010
:103AE00007000000000000000000000000001EE0D1
:103AF0000300E0000000000E0000000000003CF0A9
:103B00000000F8000000800F0000000000FCFFFF34
:103B1000FF01FC000000C00F0000000000FFFFFFDD
:103B2000FF03FC00003CC00F0080030080FFFFFF8C
:103B3000FF07FC00003CC00F00C0070080FFFFFF34
:103B4000FF0FFC00003C800F00C00700C00F00000A
:103B5000800FF800003C800F00800700C0070000C5
:103B6000001FF8000078800F00800700C0070000E9
:103B7000001FF8000078800F00800700C0070000D9
:103B8000001FF8008079800F00980700C007000030
:103B9000001FF800E0799F0F00BEE701C00710404A
:103BA000001FF800E07B1F0F00BEE701C0871FE089
:103BB0000F1FF800E07B1E0F003EE701C0E73FE06B
:103BC0003F1FF000E07B1E0F003EE701C0E73FE033
:103BD0003F1FF00060711E0F0034E701C0E70700CF
:103BE0003F1FF0000070001F00000700C00700002A
:103BF000001FF000C0731E1F003CC701C00700007B
:103C0000001FF000C0731E1F007CE701C00700000A
:103C1000001FF000C0731E1F007CEF01C0070000F2
:103C2000001FF001C0771E1E007CEF01C0070003DB
:103C3000001FF0FFC1F71EFE1F78EF01C0077037AD
:103C4000001FE0FF87F71EFEFF78EE01C007E03F90
:103C5000001FE0FF9FF71EFEFF79CE01C007C018CE
:103C6000001FE0FFBFE71EFEFF7BCE01C007000084
:103C7000001FE0C7BFE71EFEF877CE01C0070000B7
:103C8000001FE00F3FE71CFEF077CE03C0070000E7
:103C9000001FE0CF3FE71CFEF8F3CE03C0FFFFFF9D
:103CA000FF0FE0EF1FE71CFEFEF1CE0380FFFFFFDA
:103CB000FF0FE0FF0FCF1CFCFFF0C00300FFFFFF72
:103CC000FF07E0FF03061CFC7F60C00100FEFFFF52
:103CD000FF03E0FF000000FC0F00000000FCFFFFFE
:103CE000FF00C00F000000FC0000000000C0030047
:103CF0001E00000000000000000000000080010025
:103D00000C000000000000000000000000000000A7
:103D100000000000000000000000000000000000A3
:103D20000000000000000000000000000000000093
:103D30000000000000000000000000000000000083
:103D40000000000000000000000000000000000073
:103D50000000000000000000000000000000000063
:103D60000000000000000000000000000000000053
:103D70000000000000000000000000000000000043
:103D80000000000000000000000000000000000033
:103D90000000000000000000000000000000000023
:103DA0000000000000000000000000000000000013
:103DB0000000000000000000000000000000000003
:103DC00000000000000000000000000000000000F3
:103DD00000000000000000000000000000000000E3
:103DE00000000000000000000000000000000000D3
:103DF00000000000000000000000000000000000C3
:103E000000000000000000000000000000000000B2
:103E100000000000000000000000000000000000A2
:103E20000000000000000000000000000000000092
:103E30000000000000000000000000000000000082
:103E40000000000000000000000000000000C001B1
:103E50000000000000000000000600000000C0019B
:103E6000000000E007000000000700000000E00381
:103E7000000000FC1F000000000F00000000E00335
:103E8000000000FE7F000000800F00000000E00343
:103E9000000000FFFF000000801F00000000F00392
:103EA0000000800FF0000000C03F00000000F80399
:103EB0000000800FF0010000FCFF010000C0FDFFCA
:103EC0000000C07FFE010000FFFF0F0000E0FDFFCB
:103ED0000100C01FF8030000FFFF0F0000E0FDFF1E
:103EE0000100C00FF0030000FEFF070000E0FDFF2F
:103EF0000100C067E6030000FCFF030000E0FDFFD7
:103F00000100C067E6030000F8FF010000E0FDFFCC
:103F10000000C067E6030000F07F000000E0FDFF46
:103F20000000C067EE030000E07F000000E0FDFF3E
:103F30000000807FFE010000E0FF000000E0FDFFC8
:103F40000000807FFE010000F0FF000000E0FD7F28
:103F5000000000FFFF000000F0FF000000E0FD7F18
:103F6000000000FEFF000000F8F9010000E0FD7F06
:103F7000000000FE7F000000F8F0000000E0FD1FE0
:103F8000000000F81F00000030C001000000000029
:103F9000000000C00300000000000000000000005E
:103FA0000000000000000000000000000000000011
:103FB0000000000000000000000000000000000001
:103FC00000000000000000000000000000000000F1
:103FD00000000000000000000000000000000000E1
:103FE00000000000000000000000000000000000D1
:103FF00000000000000000000000000000000000C1
:1040000000000000000000000000000000000000B0
:1040100000000000000000000000000000000000A0
:104020000000000000000000000000000000000090
:104030000000000000000000000000000000000080
:104040000000000000000000000000000000000070
:104050000000000000000000000000000000000060
:104060000000000000000000000000000000000050
:104070000000000000000000000000000000000040
:104080000000000000000000000000000000000030
:104090000000000000000000000000000000000020
:1040A000000000000000000001F00000000000001F
:1040B00001F000000000000007F800000000000010
:1040C0000FFF0000000000000FFF000000000000D4
:1040D0001F7D80000000007F3FFF8000000003FF85
:1040E000DEF7C000000007C1FFFFE00007FF9E00F1
:1040F00077FB70005FFFF8003FFF3F003C00F000DF
:104100001FFFBF80700000071FBDB980600000075F
:104110001FFF3980600000071DEF998070000000CC
:104120003FFF99803E0000003BDF19800FFFC00079
:104130001FFE198003FFC0003FFC1980000FC00064
:104140003FFD1F8003FFC0003FF31F801FFF800063
:104150003EE719803E000000061F19807000000035
:1041600086081980E00000008E001980E00020071A
:104170000C0019806001F0070C003F807FFFF00009
:1041800018003F001FFF38003C00302001C01E0017
:104190007E1FF06000000F81E79FE060000003FFDA
:1041A000C1ED8060000000FF00FF306000000000F3
:1041B000003F7020000000000000F06000000000E0
:1041C0000000606000000000000001E0000000004E
:1041D000000001E000000000000001E0000000001D
:1041E000000000E00000000000000000E00002020B
:1041F0000403020405080700FF04FF05FF00E201B5
:10420000D506D9200500510221064151A2022207FC
:104210002397925400230A55CF560D550D5501246E
:104220000B65CF9AC7C8688C1C01250644B1127B68
:10423000260954B11653ACD2082705215722280766
:10424000626FA69A012908626F1253A5002A0622FE
:104250007332022B0733919656022C05214F222DE3
:10426000051393322E051151122F0744B11EDB00A6
:104270003008439132921A0131064271B60A320770
:10428000439132531A33074391B2F20834084391F1
:1042900012D388013507439132F40836074391322F
:1042A000E218370743913253093807439172A4113A
:1042B00039074391728E003A06315192023B064112
:1042C0004F92043C06327126033D063391B2073EFD
:1042D0000732711215003F074271A2720040084474
:1042E000B132D41E01410844B1A6E298014208440B
:1042F000B1B2861C024307439136B300440844B16F
:10430000B2A21C09450844B172A43C02460844B15B
:1043100032F4CA00470844B132741A03480844B161
:1043200012C794014906415132024A07439132E3D0
:10433000024B0844B112478A324C07439112CB0119
:104340004D0845D192D74A3A4E0844B112979A0186
:104350004F0844B1A6A24C0A500844B1B2E2481931
:10436000510A45D132524C31AD00520744B1F22AC4
:1043700003530844B136341A0A54074391B2620514
:10438000550744B112CD21560844B112CDA40057AF
:104390000945D19255525D005807439192CA54592C
:1043A0000844B112871E025A0844B1326239025BD6
:1043B00007626FB25A025C0944B192514619055D19
:1043C00007626FA25A035E062397D6005F0614AFFA
:1043D0003202600622771203610633917604620886
:1043E000439112555A0063063271B2046407439137
:1043F0009A56126507339132D202660843919AD2D7
:104400004A006707438F722601680843911255528C
:10441000016906415192046A07526F9693026B0735
:10442000439112D32A6C06415132026D0835D1A254
:104430005AAA006E073391A2920A6F07339132D2C3
:10444000087008438FA2D28A007107438FB6920C7E
:1044500072073271B2120073073391A69202740789
:1044600043919656147507339192D4087607339189
:10447000925405770835D1925517007806339192FA
:104480003A7908438F92461C017A07339122A300A0
:104490007B08638FA6CA1C057C05614F727D09638A
:1044A0008F22734C49017E0724B79654027F08542B
:1044B000B132A439048005005102810853919272EF
:1044C00052238208639156C3A10683086391D6469E
:1044D00047008408539192323A02850863919633DB
:1044E0003A0286086391D6B946008707426FB24602
:1044F0000088076391D61E6A8908539192F250038F
:104500008A08639196F350038B08439192328A098B
:104510008C085331D74631018D07527112730A8EC0
:104520000954B112938A63068F0A64B1A66252716C
:10453000CC00900964B15A8E91F208910835D136B9
:10454000941A02920A48313F649A23E71193086350
:1045500091D61E69049408539192F24823950963F9
:104560009192331A690496086391D64E6A049708AB
:104570006391962B35029809638F92721A310999CB
:104580000A54B112938A3229009A0954B112338A1B
:1045900072089B050091029C050091029D05009107
:1045A000029E050091029F05009102A008639156AA
:1045B000E33502A1075271A65302A20963919A3210
:1045C0001A6904A30963919A324A6A04A40A64919D
:1045D00096548632B500A50964B19654B9D40CA698
:1045E000065151A204A708638F32E29823A806144B
:1045F000B91203A90F772F3754866AA9AC9686693A
:104600002800AA05003103AB07339136A200AC069F
:1046100023933203AD05003103AE0E772F37548656
:104620006A99AAD2300D05AF0614B93202B0073329
:104630009532D208B107433197561AB20733952203
:10464000A300B3063275A206B4062277A600B50809
:10465000432F93D49000B60A56EF36AEB472CA29EF
:10466000B705917312B805003103B9063275A20A75
:10467000BA07339532D208BB073391224702BC0EEA
:10468000670FA3639D324C398E8C1200BD0D670FEE
:10469000A3639D324C32A78C04BE0E672FA363A97F
:1046A000324C398E8C1200BF05009102C00A64B1F1
:1046B00096515471CC00C10964B15AAB386600C23E
:1046C0000A64B1A6625271CC00C30A64B196545414
:1046D00071CC00C40954B112938A6306C50964B150
:1046E000A6B18A6306C60A48313F649A23E711C718
:1046F0000954AF32F4885101C80A64B196511A23A3
:10470000E511C90964B15A8E91F208CA0A64B1A6CA
:10471000E2182A8F00CB0A64B112331A23E511CCB8
:1047200007627112550BCD076271265303CE0763E2
:1047300091D6D902CF08539192CA1600D00845D11C
:1047400076956901D10964B19654867119D20A64CB
:10475000B1965154512605D30964B15AAB2893023E
:10476000D40A64B1A66252512605D50A64B19654A2
:1047700054512605D60A54B112938A322900D7061D
:104780003391923AD80C66EF0EE34C52C599210052
:10479000D90964B19651690E01DA0864B1DA348737
:1047A00000DB0A64B1A66246510E01DC0954B11265
:1047B000338A7208DD0864B1DA1C7A08DE0A64AF55
:1047C000925794236500DF08538FA2545A11E008D2
:1047D000639196333A02E108639156E33502E208A9
:1047E0006391D6464700E30A64919654C6AA5A00DC
:1047F000E408539192323A02E5086391D6B9460033
:10480000E60835D136941A02E707426FB24600E84F
:1048100008639196F3480BE909639156C39116001A
:10482000EA086391D61E6901EB08539192F2480B96
:10483000EC07527112730AED075271A65302EE088B
:104840005391D6463101EF08439192328A09F00A1A
:1048500064B126354A232605F10A649196548632BE
:10486000B500F208639196F34823F309639156C3A8
:10487000914600F4086391D61E6904F50A64919686
:104880005486AB5A00F608539192F24823F7085326
:104890009196D14609F80A55CF8ED24C716504F92C
:1048A000086391962B3502FA09639156C3A446001A
:1048B000FB086391D64E6A04FC085391927252230E
:1048C000FD09738F56C3346212FE08538F12555A76
:1048D00011FF09638F92721A310900000004FFFF73
:1048E00000005F0002020303020404040600FF0547
:1048F000FF05FF00E901D302B6200580CD002106A7
:10490000E9C8AC00220693CB2415230AACC8A43412
:10491000541A2A012409B3C7A5A1474A002508ABA8
:10492000C864D446012609ACC8C514AB9802270553
:10493000D1CB082807F2C7A966002908B2C7C4541A
:1049400029002A07ABC8A46A352B08ABC8C5B462D6
:10495000022C0692C729002D058BCA0C2E05C9C84A
:10496000042F07ABC85665043008ABC85543550043
:104970003107ABC825590D3207ABC835531A330878
:10498000ABC8CC9417003408ABC824356201350895
:10499000ABC88CA817003607ABC84DD5023708AB9B
:1049A000C8CC5446003807ABC8ADD6023907ABC8EF
:1049B000B5E4023A06E1C8C4003B07AAC765A800EF
:1049C0003C07ABC8A6BA003D069BC9EC013E07AB4D
:1049D000C8E4AA043F08ABC8E89461024006ABC82B
:1049E0002D5B4108ABC85543A9004208ABC8A8B429
:1049F000D2024308ABC8553255004408ABC8A8647E
:104A00002D004508ABC88CA8E2004608ABC88CA8AE
:104A100062044708ABC8CDA492004808ABC824354F
:104A2000940A4907ABC8AC580D4A07ABC896AA020E
:104A30004B08ABC824B5920A4C07ABC8C4E6004D7E
:104A400008ABC8A431940A4E08ABC8AAA124004FF1
:104A500007ABC85556055008ABC8A8B46204510747
:104A6000B3C755561D5208ABC8A8B4920A5307AB3A
:104A7000C8EDBC005407ABC8ACD8025507ABC8247E
:104A8000D7085608ABC8246BA4045708ABC8243514
:104A9000860A5808ABC824D552015908ABC824551A
:104AA00056005A07ABC8CC540E5B06EAC8AC4A5C49
:104AB00007ABC8C45C065D06AAC8A86A5E0593CBAE
:104AC000355F058BC70C6006D2CBC4006107A3C855
:104AD0002D95046208ABC84495D4026306A3C8CDE3
:104AE0002C6408ABC8A6A592006506A3C8555366FA
:104AF00008ABC8A6B462026708ABC7AD241700684C
:104B000008ABC84495AC006908ABC86524D3006AFB
:104B100008B3C766582E006B08ABC8C4B4920A6CC1
:104B200007ABC8C8D6006D08A3C8A4A154006E077F
:104B3000A3C8A864056F07A3C855AA027008ABC72D
:104B4000A8B462047108ABC72D9564007208A3C8AD
:104B5000A41523007307A3C88DBC007408ABC8A5B7
:104B60001573007507A3C8242B097607A3C824ABC7
:104B7000027708A3C8243554007807A3C8A43215C7
:104B80007908ABC72495E4027A07A3C8CC94067BC6
:104B900008B3C7A624EB007C06E9C80C017D09B365
:104BA000C7E4A8628A007E0794CB25950000000028
:104BB00004FFFF0000BF00020204040304050C0D03
:104BC000FFFE08FE08FE016A032C0984200500CCC4
:104BD00009210882C4C991F2082207336D4BB20241
:104BE000231087447CCAA81C3365548E9932AA01CD
:104BF0002410A53C6B1E2AA938E28849A5A12300F0
:104C000025158AC49DD44A6555235549955446496E
:104C1000E5A8725600261188C4AC862A2395A18681
:104C2000494B73A4A5002706316DCA00280BA4B414
:104C30007A8C4ABA754601290AA4B44A46D974C97D
:104C40001A2A09555C6B55AD66042B0B554C6B4607
:104C500071C88C22002C0742B4C9480A2D06135C87
:104C6000CA002E0622C4C9082F0A84C47A99638E0A
:104C70003903300E8544DB52238D34D24823A905F5
:104C8000310984459B9ABE4600320C8544DB522391
:104C90006929F33802330E8544DB5223498D461AC5
:104CA000492D00340B8544EB95549A636439350DD6
:104CB0008544CB2BA391D14823A905360E8544DB2F
:104CC00052238FA4461A492D00370A8444CBA1638E
:104CD0008E2E00380E8544DB5223A9A5461A492D95
:104CE00000390E8544DB52238DA4461E492D003A1F
:104CF0000752C4C988233B0972B4C9882329003CE0
:104D00000956CC3B9236D6583D083554CBD0700866
:104D10003E0A56CC8BC61A4B1B013F0A8544DBB2B8
:104D2000A5CCB4094012A93CFD465A6698E248FE5B
:104D30005432939A1E11411289433CCAD4C61B4671
:104D40008DA21E2366A4E608420E8744CC6949352D
:104D5000A425951C430143108744ECAA47461B6ACF
:104D6000A8518DE24800440F88C4CCADA3565A69BF
:104D7000A5954E6302450E86C4CB25938A23AA28A7
:104D8000931C23460E86C4CB25934C2A8EA8A21EC4
:104D900011470E8744ECAA47461BCAA155962B48DB
:104DA000128944CD482369A9E518514B2DB51A69DC
:104DB00004490984C4CA48D2D7084A0C86C4EBC83F
:104DC0001A69E42BCA094B1189C4CC88769619A9B3
:104DD0000C8746525B230E4C0F86C4CBC81A69A4BD
:104DE000914632C931024D158B44CEC823ED9954FA
:104DF000924925995492D18CD652234E1188C48C55
:104E00005E3ACE38524C23C699D54E004F0E874499
:104E1000ECAEF4C8238FAC729E00500F8744CC696F
:104E20004925D5901A6A3432005113983CEC463922
:104E30006AA595562349A5D148192A00520D88C460
:104E4000CC2D3DF3D0D235D200530D86C4DB39F2E0
:104E5000D068E811D702540E86C4CB915C51238DE3
:104E600034D22301551088C4CC484B471D75D4510A
:104E7000479D4704561188C4CC484B479D55462A48
:104E80002395A1C61A57158B44CE486A4919CDA857
:104E9000928A2AA9BC36D21A6909581088C4CC480B
:104EA0004BC795D1C61BA599D511591188C4CC48BB
:104EB0004B679591CA50638D351C115A0B86C4CB34
:104EC00091F57CEB31025B08A334CA50FE1A5C0CEE
:104ED00084C44ACE28679433CA015D08A334CAF259
:104EE000D7105E0A65546B4679A65A075F061634DA
:104EF000CB01600623748A14610954C4CA56238DF9
:104F000001620E86C48B461A69641D71C4B50063C4
:104F1000095544DB925BA605640E86C4FB461AA9BC
:104F200031E288232D0365095544DB52E3462366AD
:104F30000C85C4EA52498EA8CD9100670D86343B9A
:104F40008A5339F7D8632400680E86C48B461A69E1
:104F5000641D71C41105690A84C49AD470BA4600EC
:104F60006A09A3B49ABDBC46026B0E86448B461AEE
:104F700069648D38A2B2066C0884C4CAF46B046DEF
:104F80000D5AC48D92EA11E5887244036E0B56C423
:104F90008B52471C7144016F0C56C4DB4872C4111C
:104FA000D54800700D76B48B52471C718CA4D10685
:104FB000710E77B4DB505249A5A6D250A3117209E5
:104FC00054C48A1A239A00730954C4DA90230E0534
:104FD000740973445A52439902750B56C48B1C7161
:104FE000C4919601760B56C4CBB2A2CA1A49007777
:104FF0000C5944CDF28A4A65A59109780A56C4CB6A
:10500000B2B24ED600790D76B4CBB2A2CA1AC9ADEF
:1050100011007A085544CB25CD317B0AA4B4AA925D
:1050200096966E017C068146CB217D0AA4B48A96B1
:10503000B6922E097E0726DCDB520BA00500CC09B8
:10504000A10982B4C9C8698C00A20C753C3B4A63B3
:105050002595569A19A3108744EC88326A34B646CF
:105060005A8D911600A40C574C4C5AC95452A9B4ED
:1050700002A51288C4CC484B6795918D341C1A69DF
:10508000382200A6078146CB1A01A70DA4B4DA88FE
:105090005BA591929E2301A80723744A5201A9128D
:1050A00088C4ECC819954BC5A43292AB467944002C
:1050B000AA0863548A1E2A0FAB0A56C46BA54692EF
:1050C0004A16AC093554CBD028A300AD06135CCAF0
:1050D00000AE1288C4ECC8195523A998D45449D5F8
:1050E000288F08AF0614F4CA08B00843645AA52AEA
:1050F00000B109554C6B1C325343B20743E4D9AAA3
:1051000006B30743E4C9CA0BB4072374DA4800B5F1
:105110000E76B48B1C71C491C61A196904B6108737
:1051200044DC38521A29AE8C6A54A37A08B7062296
:10513000DCC908B80632354A1CB90743E4599269FC
:10514000BA0A64D49A8A32693802BB0C56C44B8CB2
:105150004AAA91548C00BC1188C45C8EBACC2BE353
:105160009851D269C49C00BD0F88C45C8EBACC2B08
:10517000E3A85399CB01BE1188C4CCCC35AA65C62F
:1051800031A3A4D3883901BF0B8534ABD674B49551
:105190005A00C015B943AC2635CF4C6DBC61D4283C
:1051A000EA3162466A8E00C115B9433CD458F3CA4D
:1051B000D4C61B468DA21E2366A4E608C215B943B9
:1051C000FC864A73676AE30DA346518F113352730D
:1051D00004C316B943BCCA28695E99DA78C3A851DA
:1051E000D463C48CD41C01C416B9437CCA38655E30
:1051F00099DA78C3A851D463C48CD41C01C516B9FC
:1052000043BCC631634D666AE30DA346518F11332B
:10521000527304C6148AC4ED183AC99C548E230FE5
:1052200015B34C598E3406C712A734ECAA47461B57
:105230006AA8518DE2C828430DC812B6C49B869A4D
:105240001C4B261547545126394600C910B6C4BB1D
:105250004D8E25938A23AA28931C23CA11B6C4EB2A
:10526000541A8F25938A23AA28931C23CB12B6C4E1
:105270006BCA295363C9A4E2882ACA24C708CC0B85
:10528000B4C48AD67024E96B04CD0BB4C4AAD2701E
:1052900024E96B04CE0CB5C4DAB2E188DAE7480041
:1052A000CF0BB4C45A371A49FA1A01D00F88C4CCAC
:1052B000ADA31E5369A5954E6302D114B8C4BCCAF0
:1052C00049B3F4D271C691621A31CEAC7602D211D2
:1052D000B744ACC69AB92B3DF2C823AB9C2700D388
:1052E00011B744BC469ABD2B3DF2C823AB9C2700A6
:1052F000D411B744EC569AB52B3DF2C823AB9C278A
:1053000000D511B744AC8A493377A5471E79649517
:10531000F304D611B7446CCAA866EE4A8F3CF2C8B3
:105320002AE709D709554C8B523B2F03D8108744E5
:10533000ECAA931C2A8D94865439A509D913B8C4B4
:10534000ACA63473A4A5A38E3AEAA8A3CE2302DAAE
:1053500014B8C43CD25033475A3AEAA8A38E3AEA6A
:105360003C2200DB13B8C4FC46363DD2D251471D67
:1053700075D451E71101DC14B8C47CCA3065D64835
:105380004B471D75D451479D4704DD15B8C43CD229
:105390005033475A3AAB8C54861A6BACE18800DE26
:1053A0000F8744CC86435A524935A4462303DF0E67
:1053B0008744EC889654A625951C4A01E00B84C4CA
:1053C0008AD670AB91C600E10B84C4AAD270AB91AF
:1053D000C600E20D95C46A5E36DC48AEA44602E320
:1053E0000C85C49A1B6F2457522301E40B84C44AD2
:1053F0006AC3AD461A03E50B84C49A8A496D35D257
:1054000018E60C58C4CC5A51A971E93502E70B755E
:1054100034DB925BA69D2500E80C85449B469A5A96
:105420006ADC6804E90B8544AB4D2E356E3402EA24
:105430000C95446B5E365E6ADC6804EB0C85445B5D
:105440009932B5D4B8D108EC0A84C48AD670BA4669
:1054500000ED0A84C4AAD270BA4600EE0B95C46A65
:105460005E36DCCE9100EF0A84C44A6AC3E91A01B1
:10547000F00E86C48B8CB31E498E38A21A09F10D2A
:1054800086C49BAA34A9D411471C51F20E86C49B32
:10549000869A1E498E38A21A09F30D86C4BB4D8F19
:1054A00024471C518D04F41096C46B465369722432
:1054B00039E2886A2400F50F86C4ABAA3439921CFD
:1054C0007144351200F60F86C45B9D323D921C710B
:1054D00044351200F70A554C6BA686A62200F80E3A
:1054E00076BC3B4C23A9B14654236508F90D86C40C
:1054F0009B869A94238E38D232FA0C86C4BB4DCA4E
:1055000011471C6919FB0F96C46B4653694A8E38C4
:10551000E248CB00FC0D86C45B9D3229471C71A478
:1055200065FD0EA6B4BB4D2E2BAAAC91DC1A01FE74
:1055300010A6B48B461A69641D71C43192461BFFD4
:105540000FA6B45B9D32B9ACA8B246726B040000E2
:105550000004FFFF0000BF0003030404030505105F
:1055600012FEFD0BFD0BFE01C004400D01200500E5
:105570008C142109B28514074ACC00220843BD15BA
:10558000112D012316A7847891602418099922C14E
:1055900048C8140946829118002417D77C78C18A1C
:1055A00024328A5062C4222D42094D2292620C009C
:1055B000251FBC845DC2A084284A1445A29250587D
:1055C00014138724C190281812C5629260500426D3
:1055D0001ABC847D7491582416C521730869141A65
:1055E000856434E188562A8900270641BD130428C2
:1055F0000DD47475A19028A4B7982C18290ED474D2
:1056000015C1982C26D229244A032A0B55B45629B1
:1056100029934C21002B0B778C78E1B45B380D007B
:105620002C085275141609002D07249C1587002E8E
:1056300006328514062F0DB48475996249B1A458B9
:105640000C00300DB7845833891ABF49D446003155
:1056500009B58558129AFE44320DB7843824514D4D
:10566000AAA8DBE1103310B7843824514D2A949155
:10567000A534D284043411B78498C2B5882C220A88
:10568000894292A354483511B7843896523865241C
:10569000994A69A40909003610B7845824118D2A43
:1056A00059A9B195242400370FB784180FC1484C6D
:1056B0002A942A4AD5003811B78438A4118D6689F6
:1056C000912236A61105003910B7845814518DADBA
:1056D000B222A5914424003A0772851426033B099F
:1056E000927514268B04003C0A778CD8C1D1F272D3
:1056F000003D07379C18F7033E0A778C18E14D8B65
:1057000061003F0EB6843714114928538C033501CC
:10571000401DBD849ED6E14836922849482A1491FE
:1057200088229268992849867248EC20024117BA6B
:10573000849B72883C228E8843D1983026B445459C
:1057400051C98C004215B9841A3725994826523B15
:105750000925428950223B8C004317BA847B95C8A7
:1057600050229ECF2172881C2207892343590900A9
:105770004419BB841C87A07024158925628958228E
:105780009688255291707288014517B9841A078945
:1057900050228D885244C1A228284A91468407028B
:1057A0004616B9841A078950228D885244C1A2280E
:1057B000280ACAC554004718BB847C95D050248E53
:1057C000C82372901C243C8BA4A2D99014014818C1
:1057D000BB841C348A542415494552D141241549AF
:1057E0004552915442234909B485171491FE424A07
:1057F0000EB7847944A95E44129124B4064B17BBBA
:10580000841C249230288B8AC292785932150D65F7
:1058100033E184544C0EB9841A64B9BE46A411E134
:1058200081004D24BD841E54CA74341D4564115139
:105830004416114564115148121285242151481211
:1058400012C5544622024E1CBB841CD3C934440CDE
:105850004566A1902C1413A54D4241527414968CA8
:1058600023004F12BB847CC5D9482A91F32E918A1C
:1058700066C31A005012B9841A87906C22940825C6
:10588000B2894DAE990A5119EB6C7CC5D9482A9161
:10589000F332938824A211B10E128527F109005228
:1058A00017BB841C87A06C269409658A56995026DC
:1058B00054134A6A13005312B9845A94C84C228D67
:1058C000482364E7319152025416BA841B879268C8
:1058D000A62D2887C82172881C2287C86900551800
:1058E000BB841CC48938240E8943E29038240E8975
:1058F00043E298305A035618BA841BB48934248D75
:10590000C982B2A02C2A094BC292B81C2204572487
:10591000BD841E14CA44260BC96421992C268948CB
:1059200082928824288948829288242A13CBC43200
:1059300019005817BB841C25CA50268C8AE292F89D
:105940003C220F498332E184545917BA841BB4892D
:1059500034260BCAA292B0242E87C82172889C06D6
:105960005A0FB8841987E19036D53A230E0F035B9E
:1059700009D4741526FD27025C0FB68417D1703444
:105980001C0D47C3D170005D09D4741524FD270395
:105990005E0F77A478E1E830129388621199005F76
:1059A0000617741707600834C516326100610E7857
:1059B0008459349158569149442B036213B9841A7F
:1059C000735D66234589502294C844111200630E0A
:1059D00077845824118D2A8C884414006413B98468
:1059E000BA736D139168229408254291683619653F
:1059F0000E78845934914478A8CB441500660DB6CE
:105A0000845623896E25A16E24006710B76CB89266
:105A10008A8C26A9844D57A1A4026811B9841A73EF
:105A20005D662335914C2413C9240C690AA484357E
:105A300022E9482F046A0CD56A75EA337DA348260B
:105A4000006B11B88419639D262215195122134940
:105A500046036C09B4841523FD0B016D127E841F6F
:105A600093D16C3452539229C994642A1C6E1079D4
:105A7000841A93D9484D2413C9443209036F0E7810
:105A80008459349144C82811C948007013A96C1A6C
:105A900093D94851229408252395995C4C0571139C
:105AA000A96C599490682294082542916836912BEC
:105AB00013720B7784179315558D3400730A76840F
:105AC000373722DB0500740FA68456D1A0AC24D44E
:105AD0001411852600751179841AA3914C2413C9D9
